{
  "_format": "hh-sol-artifact-1",
  "contractName": "MySurfGame",
  "sourceName": "contracts/MySurfGame.sol",
  "abi": [
    {
      "inputs": [
        {
          "internalType": "string[]",
          "name": "characterNames",
          "type": "string[]"
        },
        {
          "internalType": "string[]",
          "name": "characterImageURIs",
          "type": "string[]"
        },
        {
          "internalType": "uint256[]",
          "name": "characterHp",
          "type": "uint256[]"
        },
        {
          "internalType": "uint256[]",
          "name": "characterManeuver",
          "type": "uint256[]"
        },
        {
          "internalType": "uint256[]",
          "name": "characterTubeRiding",
          "type": "uint256[]"
        },
        {
          "internalType": "uint256[]",
          "name": "characterAerial",
          "type": "uint256[]"
        },
        {
          "internalType": "string",
          "name": "bossName",
          "type": "string"
        },
        {
          "internalType": "string",
          "name": "bossImageURI",
          "type": "string"
        },
        {
          "internalType": "uint256",
          "name": "bossWaves",
          "type": "uint256"
        },
        {
          "internalType": "uint256",
          "name": "bossAttackDamage",
          "type": "uint256"
        }
      ],
      "stateMutability": "nonpayable",
      "type": "constructor"
    },
    {
      "anonymous": false,
      "inputs": [
        {
          "indexed": true,
          "internalType": "address",
          "name": "owner",
          "type": "address"
        },
        {
          "indexed": true,
          "internalType": "address",
          "name": "approved",
          "type": "address"
        },
        {
          "indexed": true,
          "internalType": "uint256",
          "name": "tokenId",
          "type": "uint256"
        }
      ],
      "name": "Approval",
      "type": "event"
    },
    {
      "anonymous": false,
      "inputs": [
        {
          "indexed": true,
          "internalType": "address",
          "name": "owner",
          "type": "address"
        },
        {
          "indexed": true,
          "internalType": "address",
          "name": "operator",
          "type": "address"
        },
        {
          "indexed": false,
          "internalType": "bool",
          "name": "approved",
          "type": "bool"
        }
      ],
      "name": "ApprovalForAll",
      "type": "event"
    },
    {
      "anonymous": false,
      "inputs": [
        {
          "indexed": false,
          "internalType": "uint256",
          "name": "newBossHp",
          "type": "uint256"
        },
        {
          "indexed": false,
          "internalType": "uint256",
          "name": "newPlayerHp",
          "type": "uint256"
        }
      ],
      "name": "AttackComplete",
      "type": "event"
    },
    {
      "anonymous": false,
      "inputs": [
        {
          "indexed": false,
          "internalType": "address",
          "name": "sender",
          "type": "address"
        },
        {
          "indexed": false,
          "internalType": "uint256",
          "name": "tokenId",
          "type": "uint256"
        },
        {
          "indexed": false,
          "internalType": "uint256",
          "name": "characterIndex",
          "type": "uint256"
        }
      ],
      "name": "CharacterNFTMinted",
      "type": "event"
    },
    {
      "anonymous": false,
      "inputs": [
        {
          "indexed": true,
          "internalType": "address",
          "name": "from",
          "type": "address"
        },
        {
          "indexed": true,
          "internalType": "address",
          "name": "to",
          "type": "address"
        },
        {
          "indexed": true,
          "internalType": "uint256",
          "name": "tokenId",
          "type": "uint256"
        }
      ],
      "name": "Transfer",
      "type": "event"
    },
    {
      "inputs": [
        {
          "internalType": "address",
          "name": "to",
          "type": "address"
        },
        {
          "internalType": "uint256",
          "name": "tokenId",
          "type": "uint256"
        }
      ],
      "name": "approve",
      "outputs": [],
      "stateMutability": "nonpayable",
      "type": "function"
    },
    {
      "inputs": [],
      "name": "attackBoss",
      "outputs": [],
      "stateMutability": "nonpayable",
      "type": "function"
    },
    {
      "inputs": [
        {
          "internalType": "address",
          "name": "owner",
          "type": "address"
        }
      ],
      "name": "balanceOf",
      "outputs": [
        {
          "internalType": "uint256",
          "name": "",
          "type": "uint256"
        }
      ],
      "stateMutability": "view",
      "type": "function"
    },
    {
      "inputs": [],
      "name": "bigBoss",
      "outputs": [
        {
          "internalType": "string",
          "name": "name",
          "type": "string"
        },
        {
          "internalType": "string",
          "name": "imageURI",
          "type": "string"
        },
        {
          "internalType": "uint256",
          "name": "waves",
          "type": "uint256"
        },
        {
          "internalType": "uint256",
          "name": "maxWaves",
          "type": "uint256"
        },
        {
          "internalType": "uint256",
          "name": "attackDamage",
          "type": "uint256"
        }
      ],
      "stateMutability": "view",
      "type": "function"
    },
    {
      "inputs": [],
      "name": "checkIfUserHasNFT",
      "outputs": [
        {
          "components": [
            {
              "internalType": "uint256",
              "name": "characterIndex",
              "type": "uint256"
            },
            {
              "internalType": "string",
              "name": "name",
              "type": "string"
            },
            {
              "internalType": "string",
              "name": "imageURI",
              "type": "string"
            },
            {
              "internalType": "uint256",
              "name": "hp",
              "type": "uint256"
            },
            {
              "internalType": "uint256",
              "name": "maxHp",
              "type": "uint256"
            },
            {
              "internalType": "uint256",
              "name": "maneuver",
              "type": "uint256"
            },
            {
              "internalType": "uint256",
              "name": "tubeRiding",
              "type": "uint256"
            },
            {
              "internalType": "uint256",
              "name": "aerial",
              "type": "uint256"
            }
          ],
          "internalType": "struct MySurfGame.CharacterAttributes",
          "name": "",
          "type": "tuple"
        }
      ],
      "stateMutability": "view",
      "type": "function"
    },
    {
      "inputs": [],
      "name": "getAllDefaultCharacters",
      "outputs": [
        {
          "components": [
            {
              "internalType": "uint256",
              "name": "characterIndex",
              "type": "uint256"
            },
            {
              "internalType": "string",
              "name": "name",
              "type": "string"
            },
            {
              "internalType": "string",
              "name": "imageURI",
              "type": "string"
            },
            {
              "internalType": "uint256",
              "name": "hp",
              "type": "uint256"
            },
            {
              "internalType": "uint256",
              "name": "maxHp",
              "type": "uint256"
            },
            {
              "internalType": "uint256",
              "name": "maneuver",
              "type": "uint256"
            },
            {
              "internalType": "uint256",
              "name": "tubeRiding",
              "type": "uint256"
            },
            {
              "internalType": "uint256",
              "name": "aerial",
              "type": "uint256"
            }
          ],
          "internalType": "struct MySurfGame.CharacterAttributes[]",
          "name": "",
          "type": "tuple[]"
        }
      ],
      "stateMutability": "view",
      "type": "function"
    },
    {
      "inputs": [
        {
          "internalType": "uint256",
          "name": "tokenId",
          "type": "uint256"
        }
      ],
      "name": "getApproved",
      "outputs": [
        {
          "internalType": "address",
          "name": "",
          "type": "address"
        }
      ],
      "stateMutability": "view",
      "type": "function"
    },
    {
      "inputs": [],
      "name": "getBigBoss",
      "outputs": [
        {
          "components": [
            {
              "internalType": "string",
              "name": "name",
              "type": "string"
            },
            {
              "internalType": "string",
              "name": "imageURI",
              "type": "string"
            },
            {
              "internalType": "uint256",
              "name": "waves",
              "type": "uint256"
            },
            {
              "internalType": "uint256",
              "name": "maxWaves",
              "type": "uint256"
            },
            {
              "internalType": "uint256",
              "name": "attackDamage",
              "type": "uint256"
            }
          ],
          "internalType": "struct MySurfGame.BigBoss",
          "name": "",
          "type": "tuple"
        }
      ],
      "stateMutability": "view",
      "type": "function"
    },
    {
      "inputs": [
        {
          "internalType": "address",
          "name": "owner",
          "type": "address"
        },
        {
          "internalType": "address",
          "name": "operator",
          "type": "address"
        }
      ],
      "name": "isApprovedForAll",
      "outputs": [
        {
          "internalType": "bool",
          "name": "",
          "type": "bool"
        }
      ],
      "stateMutability": "view",
      "type": "function"
    },
    {
      "inputs": [
        {
          "internalType": "uint256",
          "name": "_characterIndex",
          "type": "uint256"
        }
      ],
      "name": "mintCharacterNFT",
      "outputs": [],
      "stateMutability": "nonpayable",
      "type": "function"
    },
    {
      "inputs": [],
      "name": "name",
      "outputs": [
        {
          "internalType": "string",
          "name": "",
          "type": "string"
        }
      ],
      "stateMutability": "view",
      "type": "function"
    },
    {
      "inputs": [
        {
          "internalType": "uint256",
          "name": "",
          "type": "uint256"
        }
      ],
      "name": "nftHolderAttributes",
      "outputs": [
        {
          "internalType": "uint256",
          "name": "characterIndex",
          "type": "uint256"
        },
        {
          "internalType": "string",
          "name": "name",
          "type": "string"
        },
        {
          "internalType": "string",
          "name": "imageURI",
          "type": "string"
        },
        {
          "internalType": "uint256",
          "name": "hp",
          "type": "uint256"
        },
        {
          "internalType": "uint256",
          "name": "maxHp",
          "type": "uint256"
        },
        {
          "internalType": "uint256",
          "name": "maneuver",
          "type": "uint256"
        },
        {
          "internalType": "uint256",
          "name": "tubeRiding",
          "type": "uint256"
        },
        {
          "internalType": "uint256",
          "name": "aerial",
          "type": "uint256"
        }
      ],
      "stateMutability": "view",
      "type": "function"
    },
    {
      "inputs": [
        {
          "internalType": "address",
          "name": "",
          "type": "address"
        }
      ],
      "name": "nftHolders",
      "outputs": [
        {
          "internalType": "uint256",
          "name": "",
          "type": "uint256"
        }
      ],
      "stateMutability": "view",
      "type": "function"
    },
    {
      "inputs": [
        {
          "internalType": "uint256",
          "name": "tokenId",
          "type": "uint256"
        }
      ],
      "name": "ownerOf",
      "outputs": [
        {
          "internalType": "address",
          "name": "",
          "type": "address"
        }
      ],
      "stateMutability": "view",
      "type": "function"
    },
    {
      "inputs": [
        {
          "internalType": "uint256",
          "name": "number",
          "type": "uint256"
        }
      ],
      "name": "random",
      "outputs": [
        {
          "internalType": "uint256",
          "name": "",
          "type": "uint256"
        }
      ],
      "stateMutability": "view",
      "type": "function"
    },
    {
      "inputs": [
        {
          "internalType": "address",
          "name": "from",
          "type": "address"
        },
        {
          "internalType": "address",
          "name": "to",
          "type": "address"
        },
        {
          "internalType": "uint256",
          "name": "tokenId",
          "type": "uint256"
        }
      ],
      "name": "safeTransferFrom",
      "outputs": [],
      "stateMutability": "nonpayable",
      "type": "function"
    },
    {
      "inputs": [
        {
          "internalType": "address",
          "name": "from",
          "type": "address"
        },
        {
          "internalType": "address",
          "name": "to",
          "type": "address"
        },
        {
          "internalType": "uint256",
          "name": "tokenId",
          "type": "uint256"
        },
        {
          "internalType": "bytes",
          "name": "data",
          "type": "bytes"
        }
      ],
      "name": "safeTransferFrom",
      "outputs": [],
      "stateMutability": "nonpayable",
      "type": "function"
    },
    {
      "inputs": [
        {
          "internalType": "address",
          "name": "operator",
          "type": "address"
        },
        {
          "internalType": "bool",
          "name": "approved",
          "type": "bool"
        }
      ],
      "name": "setApprovalForAll",
      "outputs": [],
      "stateMutability": "nonpayable",
      "type": "function"
    },
    {
      "inputs": [
        {
          "internalType": "bytes4",
          "name": "interfaceId",
          "type": "bytes4"
        }
      ],
      "name": "supportsInterface",
      "outputs": [
        {
          "internalType": "bool",
          "name": "",
          "type": "bool"
        }
      ],
      "stateMutability": "view",
      "type": "function"
    },
    {
      "inputs": [],
      "name": "symbol",
      "outputs": [
        {
          "internalType": "string",
          "name": "",
          "type": "string"
        }
      ],
      "stateMutability": "view",
      "type": "function"
    },
    {
      "inputs": [
        {
          "internalType": "uint256",
          "name": "_tokenId",
          "type": "uint256"
        }
      ],
      "name": "tokenURI",
      "outputs": [
        {
          "internalType": "string",
          "name": "",
          "type": "string"
        }
      ],
      "stateMutability": "view",
      "type": "function"
    },
    {
      "inputs": [
        {
          "internalType": "address",
          "name": "from",
          "type": "address"
        },
        {
          "internalType": "address",
          "name": "to",
          "type": "address"
        },
        {
          "internalType": "uint256",
          "name": "tokenId",
          "type": "uint256"
        }
      ],
      "name": "transferFrom",
      "outputs": [],
      "stateMutability": "nonpayable",
      "type": "function"
    }
  ],
  "bytecode": "0x60806040523480156200001157600080fd5b506040516200632038038062006320833981810160405281019062000037919062000cfb565b6040518060400160405280600781526020017f53757266657273000000000000000000000000000000000000000000000000008152506040518060400160405280600681526020017f53555246455200000000000000000000000000000000000000000000000000008152508160009080519060200190620000bb92919062000a63565b508060019080519060200190620000d492919062000a63565b5050506040518060a0016040528085815260200184815260200183815260200183815260200182815250600960008201518160000190805190602001906200011e92919062000a63565b5060208201518160010190805190602001906200013d92919062000a63565b50604082015181600201556060820151816003015560808201518160040155905050620002c0604051806080016040528060418152602001620062b060419139600960000180546200018f9062001155565b80601f0160208091040260200160405190810160405280929190818152602001828054620001bd9062001155565b80156200020e5780601f10620001e2576101008083540402835291602001916200020e565b820191906000526020600020905b815481529060010190602001808311620001f057829003601f168201915b5050505050600960020154600960010180546200022b9062001155565b80601f0160208091040260200160405190810160405280929190818152602001828054620002599062001155565b8015620002aa5780601f106200027e57610100808354040283529160200191620002aa565b820191906000526020600020905b8154815290600101906020018083116200028c57829003601f168201915b50505050506200082960201b62001d741760201c565b60005b8a51811015620008015760076040518061010001604052808381526020018d84815181106200031b577f4e487b7100000000000000000000000000000000000000000000000000000000600052603260045260246000fd5b602002602001015181526020018c848151811062000362577f4e487b7100000000000000000000000000000000000000000000000000000000600052603260045260246000fd5b602002602001015181526020018b8481518110620003a9577f4e487b7100000000000000000000000000000000000000000000000000000000600052603260045260246000fd5b602002602001015181526020018b8481518110620003f0577f4e487b7100000000000000000000000000000000000000000000000000000000600052603260045260246000fd5b602002602001015181526020018a848151811062000437577f4e487b7100000000000000000000000000000000000000000000000000000000600052603260045260246000fd5b602002602001015181526020018984815181106200047e577f4e487b7100000000000000000000000000000000000000000000000000000000600052603260045260246000fd5b60200260200101518152602001888481518110620004c5577f4e487b7100000000000000000000000000000000000000000000000000000000600052603260045260246000fd5b602002602001015181525090806001815401808255809150506001900390600052602060002090600802016000909190919091506000820151816000015560208201518160010190805190602001906200052192919062000a63565b5060408201518160020190805190602001906200054092919062000a63565b50606082015181600301556080820151816004015560a0820151816005015560c0820151816006015560e082015181600701555050600060078281548110620005b2577f4e487b7100000000000000000000000000000000000000000000000000000000600052603260045260246000fd5b90600052602060002090600802016040518061010001604052908160008201548152602001600182018054620005e89062001155565b80601f0160208091040260200160405190810160405280929190818152602001828054620006169062001155565b8015620006675780601f106200063b5761010080835404028352916020019162000667565b820191906000526020600020905b8154815290600101906020018083116200064957829003601f168201915b50505050508152602001600282018054620006829062001155565b80601f0160208091040260200160405190810160405280929190818152602001828054620006b09062001155565b8015620007015780601f10620006d55761010080835404028352916020019162000701565b820191906000526020600020905b815481529060010190602001808311620006e357829003601f168201915b505050505081526020016003820154815260200160048201548152602001600582015481526020016006820154815260200160078201548152505090506200076d6040518060600160405280602781526020016200628960279139620008d560201b62001e161760201c565b620007ab6040518060600160405280602f8152602001620062f1602f91398260200151836060015184604001516200082960201b62001d741760201c565b620007e960405180606001604052806034815260200162006255603491398260a001518360c001518460e001516200097860201b62001eaf1760201c565b50600181620007f99190620010b8565b9050620002c3565b5062000819600662000a2460201b62001f511760201c565b5050505050505050505062001279565b620008cf8484848460405160240162000846949392919062000f29565b6040516020818303038152906040527f8d142cdd000000000000000000000000000000000000000000000000000000007bffffffffffffffffffffffffffffffffffffffffffffffffffffffff19166020820180517bffffffffffffffffffffffffffffffffffffffffffffffffffffffff838183161783525050505062000a3a60201b60201c565b50505050565b6200097581604051602401620008ec919062000f05565b6040516020818303038152906040527f41304fac000000000000000000000000000000000000000000000000000000007bffffffffffffffffffffffffffffffffffffffffffffffffffffffff19166020820180517bffffffffffffffffffffffffffffffffffffffffffffffffffffffff838183161783525050505062000a3a60201b60201c565b50565b62000a1e8484848460405160240162000995949392919062000f8b565b6040516020818303038152906040527f08ee5666000000000000000000000000000000000000000000000000000000007bffffffffffffffffffffffffffffffffffffffffffffffffffffffff19166020820180517bffffffffffffffffffffffffffffffffffffffffffffffffffffffff838183161783525050505062000a3a60201b60201c565b50505050565b6001816000016000828254019250508190555050565b60008151905060006a636f6e736f6c652e6c6f679050602083016000808483855afa5050505050565b82805462000a719062001155565b90600052602060002090601f01602090048101928262000a95576000855562000ae1565b82601f1062000ab057805160ff191683800117855562000ae1565b8280016001018555821562000ae1579182015b8281111562000ae057825182559160200191906001019062000ac3565b5b50905062000af0919062000af4565b5090565b5b8082111562000b0f57600081600090555060010162000af5565b5090565b600062000b2a62000b248462001008565b62000fdf565b9050808382526020820190508285602086028201111562000b4a57600080fd5b60005b8581101562000b9957815167ffffffffffffffff81111562000b6e57600080fd5b80860162000b7d898262000cb7565b8552602085019450602084019350505060018101905062000b4d565b5050509392505050565b600062000bba62000bb48462001037565b62000fdf565b9050808382526020820190508285602086028201111562000bda57600080fd5b60005b8581101562000c0e578162000bf3888262000ce4565b84526020840193506020830192505060018101905062000bdd565b5050509392505050565b600062000c2f62000c298462001066565b62000fdf565b90508281526020810184848401111562000c4857600080fd5b62000c558482856200111f565b509392505050565b600082601f83011262000c6f57600080fd5b815162000c8184826020860162000b13565b91505092915050565b600082601f83011262000c9c57600080fd5b815162000cae84826020860162000ba3565b91505092915050565b600082601f83011262000cc957600080fd5b815162000cdb84826020860162000c18565b91505092915050565b60008151905062000cf5816200125f565b92915050565b6000806000806000806000806000806101408b8d03121562000d1c57600080fd5b60008b015167ffffffffffffffff81111562000d3757600080fd5b62000d458d828e0162000c5d565b9a505060208b015167ffffffffffffffff81111562000d6357600080fd5b62000d718d828e0162000c5d565b99505060408b015167ffffffffffffffff81111562000d8f57600080fd5b62000d9d8d828e0162000c8a565b98505060608b015167ffffffffffffffff81111562000dbb57600080fd5b62000dc98d828e0162000c8a565b97505060808b015167ffffffffffffffff81111562000de757600080fd5b62000df58d828e0162000c8a565b96505060a08b015167ffffffffffffffff81111562000e1357600080fd5b62000e218d828e0162000c8a565b95505060c08b015167ffffffffffffffff81111562000e3f57600080fd5b62000e4d8d828e0162000cb7565b94505060e08b015167ffffffffffffffff81111562000e6b57600080fd5b62000e798d828e0162000cb7565b93505061010062000e8d8d828e0162000ce4565b92505061012062000ea18d828e0162000ce4565b9150509295989b9194979a5092959850565b600062000ec0826200109c565b62000ecc8185620010a7565b935062000ede8185602086016200111f565b62000ee9816200124e565b840191505092915050565b62000eff8162001115565b82525050565b6000602082019050818103600083015262000f21818462000eb3565b905092915050565b6000608082019050818103600083015262000f45818762000eb3565b9050818103602083015262000f5b818662000eb3565b905062000f6c604083018562000ef4565b818103606083015262000f80818462000eb3565b905095945050505050565b6000608082019050818103600083015262000fa7818762000eb3565b905062000fb8602083018662000ef4565b62000fc7604083018562000ef4565b62000fd6606083018462000ef4565b95945050505050565b600062000feb62000ffe565b905062000ff982826200118b565b919050565b6000604051905090565b600067ffffffffffffffff8211156200102657620010256200121f565b5b602082029050602081019050919050565b600067ffffffffffffffff8211156200105557620010546200121f565b5b602082029050602081019050919050565b600067ffffffffffffffff8211156200108457620010836200121f565b5b6200108f826200124e565b9050602081019050919050565b600081519050919050565b600082825260208201905092915050565b6000620010c58262001115565b9150620010d28362001115565b9250827fffffffffffffffffffffffffffffffffffffffffffffffffffffffffffffffff038211156200110a5762001109620011c1565b5b828201905092915050565b6000819050919050565b60005b838110156200113f57808201518184015260208101905062001122565b838111156200114f576000848401525b50505050565b600060028204905060018216806200116e57607f821691505b60208210811415620011855762001184620011f0565b5b50919050565b62001196826200124e565b810181811067ffffffffffffffff82111715620011b857620011b76200121f565b5b80604052505050565b7f4e487b7100000000000000000000000000000000000000000000000000000000600052601160045260246000fd5b7f4e487b7100000000000000000000000000000000000000000000000000000000600052602260045260246000fd5b7f4e487b7100000000000000000000000000000000000000000000000000000000600052604160045260246000fd5b6000601f19601f8301169050919050565b6200126a8162001115565b81146200127657600080fd5b50565b614fcc80620012896000396000f3fe608060405234801561001057600080fd5b50600436106101425760003560e01c806398da4c95116100b8578063b953084e1161007c578063b953084e146103a6578063c87b56dd146103c4578063c8cf27f4146103f4578063d4f24c5b14610412578063e985e9c51461041c578063f8b81ef71461044c57610142565b806398da4c95146102e5578063a22cb4651461031c578063a9c3267914610338578063b863bd371461035a578063b88d4fde1461038a57610142565b806323b872dd1161010a57806323b872dd146101ff57806342842e0e1461021b5780636352211e1461023757806370a08231146102675780637df124a11461029757806395d89b41146102c757610142565b806301ffc9a7146101475780630665f9611461017757806306fdde0314610195578063081812fc146101b3578063095ea7b3146101e3575b600080fd5b610161600480360381019061015c9190613497565b610468565b60405161016e9190613de5565b60405180910390f35b61017f61054a565b60405161018c91906141cf565b60405180910390f35b61019d6106a6565b6040516101aa9190613e00565b60405180910390f35b6101cd60048036038101906101c891906134e9565b610738565b6040516101da9190613d25565b60405180910390f35b6101fd60048036038101906101f8919061345b565b61077e565b005b61021960048036038101906102149190613355565b610896565b005b61023560048036038101906102309190613355565b6108f6565b005b610251600480360381019061024c91906134e9565b610916565b60405161025e9190613d25565b60405180910390f35b610281600480360381019061027c91906132f0565b6109c8565b60405161028e9190614213565b60405180910390f35b6102b160048036038101906102ac91906132f0565b610a80565b6040516102be9190614213565b60405180910390f35b6102cf610a98565b6040516102dc9190613e00565b60405180910390f35b6102ff60048036038101906102fa91906134e9565b610b2a565b60405161031398979695949392919061422e565b60405180910390f35b6103366004803603810190610331919061341f565b610c82565b005b610340610c98565b604051610351959493929190613f14565b60405180910390f35b610374600480360381019061036f91906134e9565b610dcc565b6040516103819190614213565b60405180910390f35b6103a4600480360381019061039f91906133a4565b610e0e565b005b6103ae610e70565b6040516103bb9190613dc3565b60405180910390f35b6103de60048036038101906103d991906134e9565b611030565b6040516103eb9190613e00565b60405180910390f35b6103fc611288565b60405161040991906141f1565b60405180910390f35b61041a611475565b005b61043660048036038101906104319190613319565b611835565b6040516104439190613de5565b60405180910390f35b610466600480360381019061046191906134e9565b6118c9565b005b60007f80ac58cd000000000000000000000000000000000000000000000000000000007bffffffffffffffffffffffffffffffffffffffffffffffffffffffff1916827bffffffffffffffffffffffffffffffffffffffffffffffffffffffff1916148061053357507f5b5e139f000000000000000000000000000000000000000000000000000000007bffffffffffffffffffffffffffffffffffffffffffffffffffffffff1916827bffffffffffffffffffffffffffffffffffffffffffffffffffffffff1916145b80610543575061054282611f67565b5b9050919050565b610552613108565b60096040518060a001604052908160008201805461056f90614591565b80601f016020809104026020016040519081016040528092919081815260200182805461059b90614591565b80156105e85780601f106105bd576101008083540402835291602001916105e8565b820191906000526020600020905b8154815290600101906020018083116105cb57829003601f168201915b5050505050815260200160018201805461060190614591565b80601f016020809104026020016040519081016040528092919081815260200182805461062d90614591565b801561067a5780601f1061064f5761010080835404028352916020019161067a565b820191906000526020600020905b81548152906001019060200180831161065d57829003601f168201915b505050505081526020016002820154815260200160038201548152602001600482015481525050905090565b6060600080546106b590614591565b80601f01602080910402602001604051908101604052809291908181526020018280546106e190614591565b801561072e5780601f106107035761010080835404028352916020019161072e565b820191906000526020600020905b81548152906001019060200180831161071157829003601f168201915b5050505050905090565b600061074382611fd1565b6004600083815260200190815260200160002060009054906101000a900473ffffffffffffffffffffffffffffffffffffffff169050919050565b600061078982610916565b90508073ffffffffffffffffffffffffffffffffffffffff168373ffffffffffffffffffffffffffffffffffffffff1614156107fa576040517f08c379a00000000000000000000000000000000000000000000000000000000081526004016107f19061416f565b60405180910390fd5b8073ffffffffffffffffffffffffffffffffffffffff1661081961201c565b73ffffffffffffffffffffffffffffffffffffffff16148061084857506108478161084261201c565b611835565b5b610887576040517f08c379a000000000000000000000000000000000000000000000000000000000815260040161087e9061410f565b60405180910390fd5b6108918383612024565b505050565b6108a76108a161201c565b826120dd565b6108e6576040517f08c379a00000000000000000000000000000000000000000000000000000000081526004016108dd906141af565b60405180910390fd5b6108f1838383612172565b505050565b61091183838360405180602001604052806000815250610e0e565b505050565b6000806002600084815260200190815260200160002060009054906101000a900473ffffffffffffffffffffffffffffffffffffffff169050600073ffffffffffffffffffffffffffffffffffffffff168173ffffffffffffffffffffffffffffffffffffffff1614156109bf576040517f08c379a00000000000000000000000000000000000000000000000000000000081526004016109b69061414f565b60405180910390fd5b80915050919050565b60008073ffffffffffffffffffffffffffffffffffffffff168273ffffffffffffffffffffffffffffffffffffffff161415610a39576040517f08c379a0000000000000000000000000000000000000000000000000000000008152600401610a30906140cf565b60405180910390fd5b600360008373ffffffffffffffffffffffffffffffffffffffff1673ffffffffffffffffffffffffffffffffffffffff168152602001908152602001600020549050919050565b600e6020528060005260406000206000915090505481565b606060018054610aa790614591565b80601f0160208091040260200160405190810160405280929190818152602001828054610ad390614591565b8015610b205780601f10610af557610100808354040283529160200191610b20565b820191906000526020600020905b815481529060010190602001808311610b0357829003601f168201915b5050505050905090565b6008602052806000526040600020600091509050806000015490806001018054610b5390614591565b80601f0160208091040260200160405190810160405280929190818152602001828054610b7f90614591565b8015610bcc5780601f10610ba157610100808354040283529160200191610bcc565b820191906000526020600020905b815481529060010190602001808311610baf57829003601f168201915b505050505090806002018054610be190614591565b80601f0160208091040260200160405190810160405280929190818152602001828054610c0d90614591565b8015610c5a5780601f10610c2f57610100808354040283529160200191610c5a565b820191906000526020600020905b815481529060010190602001808311610c3d57829003601f168201915b5050505050908060030154908060040154908060050154908060060154908060070154905088565b610c94610c8d61201c565b83836123d9565b5050565b6009806000018054610ca990614591565b80601f0160208091040260200160405190810160405280929190818152602001828054610cd590614591565b8015610d225780601f10610cf757610100808354040283529160200191610d22565b820191906000526020600020905b815481529060010190602001808311610d0557829003601f168201915b505050505090806001018054610d3790614591565b80601f0160208091040260200160405190810160405280929190818152602001828054610d6390614591565b8015610db05780601f10610d8557610100808354040283529160200191610db0565b820191906000526020600020905b815481529060010190602001808311610d9357829003601f168201915b5050505050908060020154908060030154908060040154905085565b600081424433604051602001610de493929190613ce8565b6040516020818303038152906040528051906020012060001c610e07919061466b565b9050919050565b610e1f610e1961201c565b836120dd565b610e5e576040517f08c379a0000000000000000000000000000000000000000000000000000000008152600401610e55906141af565b60405180910390fd5b610e6a84848484612546565b50505050565b60606007805480602002602001604051908101604052809291908181526020016000905b8282101561102757838290600052602060002090600802016040518061010001604052908160008201548152602001600182018054610ed290614591565b80601f0160208091040260200160405190810160405280929190818152602001828054610efe90614591565b8015610f4b5780601f10610f2057610100808354040283529160200191610f4b565b820191906000526020600020905b815481529060010190602001808311610f2e57829003601f168201915b50505050508152602001600282018054610f6490614591565b80601f0160208091040260200160405190810160405280929190818152602001828054610f9090614591565b8015610fdd5780601f10610fb257610100808354040283529160200191610fdd565b820191906000526020600020905b815481529060010190602001808311610fc057829003601f168201915b505050505081526020016003820154815260200160048201548152602001600582015481526020016006820154815260200160078201548152505081526020019060010190610e94565b50505050905090565b6060600060086000848152602001908152602001600020604051806101000160405290816000820154815260200160018201805461106d90614591565b80601f016020809104026020016040519081016040528092919081815260200182805461109990614591565b80156110e65780601f106110bb576101008083540402835291602001916110e6565b820191906000526020600020905b8154815290600101906020018083116110c957829003601f168201915b505050505081526020016002820180546110ff90614591565b80601f016020809104026020016040519081016040528092919081815260200182805461112b90614591565b80156111785780601f1061114d57610100808354040283529160200191611178565b820191906000526020600020905b81548152906001019060200180831161115b57829003601f168201915b5050505050815260200160038201548152602001600482015481526020016005820154815260200160068201548152602001600782015481525050905060006111c482606001516125a2565b905060006111d583608001516125a2565b905060006111e68460a001516125a2565b905060006111f78560c001516125a2565b905060006112088660e001516125a2565b90506000611252876020015161121d8b6125a2565b8960400151898989898960405160200161123e989796959493929190613bf1565b60405160208183030381529060405261274f565b90506000816040516020016112679190613cc6565b60405160208183030381529060405290508098505050505050505050919050565b611290613137565b6000600e60003373ffffffffffffffffffffffffffffffffffffffff1673ffffffffffffffffffffffffffffffffffffffff16815260200190815260200160002054905060008111156114645760086000828152602001908152602001600020604051806101000160405290816000820154815260200160018201805461131690614591565b80601f016020809104026020016040519081016040528092919081815260200182805461134290614591565b801561138f5780601f106113645761010080835404028352916020019161138f565b820191906000526020600020905b81548152906001019060200180831161137257829003601f168201915b505050505081526020016002820180546113a890614591565b80601f01602080910402602001604051908101604052809291908181526020018280546113d490614591565b80156114215780601f106113f657610100808354040283529160200191611421565b820191906000526020600020905b81548152906001019060200180831161140457829003601f168201915b5050505050815260200160038201548152602001600482015481526020016005820154815260200160068201548152602001600782015481525050915050611472565b61146c613137565b80925050505b90565b611496604051806060016040528060218152602001614e3060219139611e16565b6000600e60003373ffffffffffffffffffffffffffffffffffffffff1673ffffffffffffffffffffffffffffffffffffffff16815260200190815260200160002054905060006008600083815260200190815260200160002090506115a4604051806060016040528060238152602001614dbc6023913982600101805461151c90614591565b80601f016020809104026020016040519081016040528092919081815260200182805461154890614591565b80156115955780601f1061156a57610100808354040283529160200191611595565b820191906000526020600020905b81548152906001019060200180831161157857829003601f168201915b5050505050836003015461290d565b6115d4604051806060016040528060308152602001614ddf60309139826005015483600601548460070154611eaf565b61168f604051806060016040528060328152602001614eb6603291396009600001805461160090614591565b80601f016020809104026020016040519081016040528092919081815260200182805461162c90614591565b80156116795780601f1061164e57610100808354040283529160200191611679565b820191906000526020600020905b81548152906001019060200180831161165c57829003601f168201915b50505050506009600201546009600401546129ac565b60008160030154116116d6576040517f08c379a00000000000000000000000000000000000000000000000000000000081526004016116cd906140ef565b60405180910390fd5b60006009600201541161171e576040517f08c379a00000000000000000000000000000000000000000000000000000000081526004016117159061418f565b60405180910390fd5b600061172982612a4e565b9050806009600201541015611748576000600960020181905550611763565b8060096002015461175991906144a7565b6009600201819055505b6009600401548260030154101561178357600082600301819055506117a1565b600960040154826003015461179891906144a7565b82600301819055505b6117c8604051806060016040528060348152602001614ee860349139600960020154612b13565b6117ee6040518060600160405280602d8152602001614f6a602d91398360030154612b13565b7f838ab28464562786a6c4ab2311964b82fa60bd9b14aa7e856af1f3f18d41a41460096002015483600301546040516118289291906142ba565b60405180910390a1505050565b6000600560008473ffffffffffffffffffffffffffffffffffffffff1673ffffffffffffffffffffffffffffffffffffffff16815260200190815260200160002060008373ffffffffffffffffffffffffffffffffffffffff1673ffffffffffffffffffffffffffffffffffffffff16815260200190815260200160002060009054906101000a900460ff16905092915050565b60006118d56006612baf565b90506118e13382612bbd565b6040518061010001604052808381526020016007848154811061192d577f4e487b7100000000000000000000000000000000000000000000000000000000600052603260045260246000fd5b9060005260206000209060080201600101805461194990614591565b80601f016020809104026020016040519081016040528092919081815260200182805461197590614591565b80156119c25780601f10611997576101008083540402835291602001916119c2565b820191906000526020600020905b8154815290600101906020018083116119a557829003601f168201915b5050505050815260200160078481548110611a06577f4e487b7100000000000000000000000000000000000000000000000000000000600052603260045260246000fd5b90600052602060002090600802016002018054611a2290614591565b80601f0160208091040260200160405190810160405280929190818152602001828054611a4e90614591565b8015611a9b5780601f10611a7057610100808354040283529160200191611a9b565b820191906000526020600020905b815481529060010190602001808311611a7e57829003601f168201915b5050505050815260200160078481548110611adf577f4e487b7100000000000000000000000000000000000000000000000000000000600052603260045260246000fd5b906000526020600020906008020160030154815260200160078481548110611b30577f4e487b7100000000000000000000000000000000000000000000000000000000600052603260045260246000fd5b906000526020600020906008020160040154815260200160078481548110611b81577f4e487b7100000000000000000000000000000000000000000000000000000000600052603260045260246000fd5b906000526020600020906008020160050154815260200160078481548110611bd2577f4e487b7100000000000000000000000000000000000000000000000000000000600052603260045260246000fd5b906000526020600020906008020160060154815260200160078481548110611c23577f4e487b7100000000000000000000000000000000000000000000000000000000600052603260045260246000fd5b90600052602060002090600802016007015481525060086000838152602001908152602001600020600082015181600001556020820151816001019080519060200190611c7192919061317c565b506040820151816002019080519060200190611c8e92919061317c565b50606082015181600301556080820151816004015560a0820151816005015560c0820151816006015560e08201518160070155905050611ce76040518060600160405280602c8152602001614f3e602c91398284612bdb565b80600e60003373ffffffffffffffffffffffffffffffffffffffff1673ffffffffffffffffffffffffffffffffffffffff16815260200190815260200160002081905550611d356006611f51565b7f4bc303fd457a97b4691b9af582ce71868a3d258638c8d4f8c60988a0f0bfb8cd338284604051611d6893929190613d8c565b60405180910390a15050565b611e1084848484604051602401611d8e9493929190613e67565b6040516020818303038152906040527f8d142cdd000000000000000000000000000000000000000000000000000000007bffffffffffffffffffffffffffffffffffffffffffffffffffffffff19166020820180517bffffffffffffffffffffffffffffffffffffffffffffffffffffffff8381831617835250505050612c7a565b50505050565b611eac81604051602401611e2a9190613e00565b6040516020818303038152906040527f41304fac000000000000000000000000000000000000000000000000000000007bffffffffffffffffffffffffffffffffffffffffffffffffffffffff19166020820180517bffffffffffffffffffffffffffffffffffffffffffffffffffffffff8381831617835250505050612c7a565b50565b611f4b84848484604051602401611ec99493929190613fe3565b6040516020818303038152906040527f08ee5666000000000000000000000000000000000000000000000000000000007bffffffffffffffffffffffffffffffffffffffffffffffffffffffff19166020820180517bffffffffffffffffffffffffffffffffffffffffffffffffffffffff8381831617835250505050612c7a565b50505050565b6001816000016000828254019250508190555050565b60007f01ffc9a7000000000000000000000000000000000000000000000000000000007bffffffffffffffffffffffffffffffffffffffffffffffffffffffff1916827bffffffffffffffffffffffffffffffffffffffffffffffffffffffff1916149050919050565b611fda81612ca3565b612019576040517f08c379a00000000000000000000000000000000000000000000000000000000081526004016120109061414f565b60405180910390fd5b50565b600033905090565b816004600083815260200190815260200160002060006101000a81548173ffffffffffffffffffffffffffffffffffffffff021916908373ffffffffffffffffffffffffffffffffffffffff160217905550808273ffffffffffffffffffffffffffffffffffffffff1661209783610916565b73ffffffffffffffffffffffffffffffffffffffff167f8c5be1e5ebec7d5bd14f71427d1e84f3dd0314c0f7b2291e5b200ac8c7c3b92560405160405180910390a45050565b6000806120e983610916565b90508073ffffffffffffffffffffffffffffffffffffffff168473ffffffffffffffffffffffffffffffffffffffff16148061212b575061212a8185611835565b5b8061216957508373ffffffffffffffffffffffffffffffffffffffff1661215184610738565b73ffffffffffffffffffffffffffffffffffffffff16145b91505092915050565b8273ffffffffffffffffffffffffffffffffffffffff1661219282610916565b73ffffffffffffffffffffffffffffffffffffffff16146121e8576040517f08c379a00000000000000000000000000000000000000000000000000000000081526004016121df9061404f565b60405180910390fd5b600073ffffffffffffffffffffffffffffffffffffffff168273ffffffffffffffffffffffffffffffffffffffff161415612258576040517f08c379a000000000000000000000000000000000000000000000000000000000815260040161224f9061408f565b60405180910390fd5b612263838383612d0f565b61226e600082612024565b6001600360008573ffffffffffffffffffffffffffffffffffffffff1673ffffffffffffffffffffffffffffffffffffffff16815260200190815260200160002060008282546122be91906144a7565b925050819055506001600360008473ffffffffffffffffffffffffffffffffffffffff1673ffffffffffffffffffffffffffffffffffffffff168152602001908152602001600020600082825461231591906143c6565b92505081905550816002600083815260200190815260200160002060006101000a81548173ffffffffffffffffffffffffffffffffffffffff021916908373ffffffffffffffffffffffffffffffffffffffff160217905550808273ffffffffffffffffffffffffffffffffffffffff168473ffffffffffffffffffffffffffffffffffffffff167fddf252ad1be2c89b69c2b068fc378daa952ba7f163c4a11628f55a4df523b3ef60405160405180910390a46123d4838383612d14565b505050565b8173ffffffffffffffffffffffffffffffffffffffff168373ffffffffffffffffffffffffffffffffffffffff161415612448576040517f08c379a000000000000000000000000000000000000000000000000000000000815260040161243f906140af565b60405180910390fd5b80600560008573ffffffffffffffffffffffffffffffffffffffff1673ffffffffffffffffffffffffffffffffffffffff16815260200190815260200160002060008473ffffffffffffffffffffffffffffffffffffffff1673ffffffffffffffffffffffffffffffffffffffff16815260200190815260200160002060006101000a81548160ff0219169083151502179055508173ffffffffffffffffffffffffffffffffffffffff168373ffffffffffffffffffffffffffffffffffffffff167f17307eab39ab6107e8899845ad3d59bd9653f200f220920489ca2b5937696c31836040516125399190613de5565b60405180910390a3505050565b612551848484612172565b61255d84848484612d19565b61259c576040517f08c379a00000000000000000000000000000000000000000000000000000000081526004016125939061402f565b60405180910390fd5b50505050565b606060008214156125ea576040518060400160405280600181526020017f3000000000000000000000000000000000000000000000000000000000000000815250905061274a565b600082905060005b6000821461261c578080612605906145f4565b915050600a82612615919061441c565b91506125f2565b60008167ffffffffffffffff81111561265e577f4e487b7100000000000000000000000000000000000000000000000000000000600052604160045260246000fd5b6040519080825280601f01601f1916602001820160405280156126905781602001600182028036833780820191505090505b5090505b60008514612743576001826126a991906144a7565b9150600a856126b8919061466b565b60306126c491906143c6565b60f81b818381518110612700577f4e487b7100000000000000000000000000000000000000000000000000000000600052603260045260246000fd5b60200101907effffffffffffffffffffffffffffffffffffffffffffffffffffffffffffff1916908160001a905350600a8561273c919061441c565b9450612694565b8093505050505b919050565b606060008251905060008114156127785760405180602001604052806000815250915050612908565b6000600360028361278991906143c6565b612793919061441c565b600461279f919061444d565b905060006020826127b091906143c6565b67ffffffffffffffff8111156127ef577f4e487b7100000000000000000000000000000000000000000000000000000000600052604160045260246000fd5b6040519080825280601f01601f1916602001820160405280156128215781602001600182028036833780820191505090505b5090506000604051806060016040528060408152602001614e51604091399050600181016020830160005b868110156128c55760038101905062ffffff818a015116603f8160121c168401518060081b905060ff603f83600c1c1686015116810190508060081b905060ff603f8360061c1686015116810190508060081b905060ff603f831686015116810190508060e01b9050808452600484019350505061284c565b5060038606600181146128df57600281146128ef576128fa565b613d3d60f01b60028303526128fa565b603d60f81b60018303525b508484525050819450505050505b919050565b6129a783838360405160240161292593929190613e22565b6040516020818303038152906040527ff362ca59000000000000000000000000000000000000000000000000000000007bffffffffffffffffffffffffffffffffffffffffffffffffffffffff19166020820180517bffffffffffffffffffffffffffffffffffffffffffffffffffffffff8381831617835250505050612c7a565b505050565b612a48848484846040516024016129c69493929190613ec1565b6040516020818303038152906040527fd5cf17d0000000000000000000000000000000000000000000000000000000007bffffffffffffffffffffffffffffffffffffffffffffffffffffffff19166020820180517bffffffffffffffffffffffffffffffffffffffffffffffffffffffff8381831617835250505050612c7a565b50505050565b600080612a5b6003610dcc565b90506000836005015490508160001415612a9d5783600601549050612a98604051806060016040528060258152602001614e916025913982612b13565b612b09565b8160011415612ad45783600601549050612acf604051806060016040528060228152602001614f1c6022913982612b13565b612b08565b8160021415612b075783600701549050612b06604051806060016040528060218152602001614e0f6021913982612b13565b5b5b5b8092505050919050565b612bab8282604051602401612b29929190613f75565b6040516020818303038152906040527f9710a9d0000000000000000000000000000000000000000000000000000000007bffffffffffffffffffffffffffffffffffffffffffffffffffffffff19166020820180517bffffffffffffffffffffffffffffffffffffffffffffffffffffffff8381831617835250505050612c7a565b5050565b600081600001549050919050565b612bd7828260405180602001604052806000815250612eb0565b5050565b612c75838383604051602401612bf393929190613fa5565b6040516020818303038152906040527f969cdd03000000000000000000000000000000000000000000000000000000007bffffffffffffffffffffffffffffffffffffffffffffffffffffffff19166020820180517bffffffffffffffffffffffffffffffffffffffffffffffffffffffff8381831617835250505050612c7a565b505050565b60008151905060006a636f6e736f6c652e6c6f679050602083016000808483855afa5050505050565b60008073ffffffffffffffffffffffffffffffffffffffff166002600084815260200190815260200160002060009054906101000a900473ffffffffffffffffffffffffffffffffffffffff1673ffffffffffffffffffffffffffffffffffffffff1614159050919050565b505050565b505050565b6000612d3a8473ffffffffffffffffffffffffffffffffffffffff16612f0b565b15612ea3578373ffffffffffffffffffffffffffffffffffffffff1663150b7a02612d6361201c565b8786866040518563ffffffff1660e01b8152600401612d859493929190613d40565b602060405180830381600087803b158015612d9f57600080fd5b505af1925050508015612dd057506040513d601f19601f82011682018060405250810190612dcd91906134c0565b60015b612e53573d8060008114612e00576040519150601f19603f3d011682016040523d82523d6000602084013e612e05565b606091505b50600081511415612e4b576040517f08c379a0000000000000000000000000000000000000000000000000000000008152600401612e429061402f565b60405180910390fd5b805181602001fd5b63150b7a0260e01b7bffffffffffffffffffffffffffffffffffffffffffffffffffffffff1916817bffffffffffffffffffffffffffffffffffffffffffffffffffffffff191614915050612ea8565b600190505b949350505050565b612eba8383612f2e565b612ec76000848484612d19565b612f06576040517f08c379a0000000000000000000000000000000000000000000000000000000008152600401612efd9061402f565b60405180910390fd5b505050565b6000808273ffffffffffffffffffffffffffffffffffffffff163b119050919050565b600073ffffffffffffffffffffffffffffffffffffffff168273ffffffffffffffffffffffffffffffffffffffff161415612f9e576040517f08c379a0000000000000000000000000000000000000000000000000000000008152600401612f959061412f565b60405180910390fd5b612fa781612ca3565b15612fe7576040517f08c379a0000000000000000000000000000000000000000000000000000000008152600401612fde9061406f565b60405180910390fd5b612ff360008383612d0f565b6001600360008473ffffffffffffffffffffffffffffffffffffffff1673ffffffffffffffffffffffffffffffffffffffff168152602001908152602001600020600082825461304391906143c6565b92505081905550816002600083815260200190815260200160002060006101000a81548173ffffffffffffffffffffffffffffffffffffffff021916908373ffffffffffffffffffffffffffffffffffffffff160217905550808273ffffffffffffffffffffffffffffffffffffffff16600073ffffffffffffffffffffffffffffffffffffffff167fddf252ad1be2c89b69c2b068fc378daa952ba7f163c4a11628f55a4df523b3ef60405160405180910390a461310460008383612d14565b5050565b6040518060a0016040528060608152602001606081526020016000815260200160008152602001600081525090565b60405180610100016040528060008152602001606081526020016060815260200160008152602001600081526020016000815260200160008152602001600081525090565b82805461318890614591565b90600052602060002090601f0160209004810192826131aa57600085556131f1565b82601f106131c357805160ff19168380011785556131f1565b828001600101855582156131f1579182015b828111156131f05782518255916020019190600101906131d5565b5b5090506131fe9190613202565b5090565b5b8082111561321b576000816000905550600101613203565b5090565b600061323261322d84614308565b6142e3565b90508281526020810184848401111561324a57600080fd5b61325584828561454f565b509392505050565b60008135905061326c81614d5f565b92915050565b60008135905061328181614d76565b92915050565b60008135905061329681614d8d565b92915050565b6000815190506132ab81614d8d565b92915050565b600082601f8301126132c257600080fd5b81356132d284826020860161321f565b91505092915050565b6000813590506132ea81614da4565b92915050565b60006020828403121561330257600080fd5b60006133108482850161325d565b91505092915050565b6000806040838503121561332c57600080fd5b600061333a8582860161325d565b925050602061334b8582860161325d565b9150509250929050565b60008060006060848603121561336a57600080fd5b60006133788682870161325d565b93505060206133898682870161325d565b925050604061339a868287016132db565b9150509250925092565b600080600080608085870312156133ba57600080fd5b60006133c88782880161325d565b94505060206133d98782880161325d565b93505060406133ea878288016132db565b925050606085013567ffffffffffffffff81111561340757600080fd5b613413878288016132b1565b91505092959194509250565b6000806040838503121561343257600080fd5b60006134408582860161325d565b925050602061345185828601613272565b9150509250929050565b6000806040838503121561346e57600080fd5b600061347c8582860161325d565b925050602061348d858286016132db565b9150509250929050565b6000602082840312156134a957600080fd5b60006134b784828501613287565b91505092915050565b6000602082840312156134d257600080fd5b60006134e08482850161329c565b91505092915050565b6000602082840312156134fb57600080fd5b6000613509848285016132db565b91505092915050565b600061351e8383613a4e565b905092915050565b61352f816144db565b82525050565b613546613541826144db565b61463d565b82525050565b600061355782614349565b6135618185614377565b93508360208202850161357385614339565b8060005b858110156135af57848403895281516135908582613512565b945061359b8361436a565b925060208a01995050600181019050613577565b50829750879550505050505092915050565b6135ca816144ed565b82525050565b60006135db82614354565b6135e58185614388565b93506135f581856020860161455e565b6135fe81614758565b840191505092915050565b60006136148261435f565b61361e8185614399565b935061362e81856020860161455e565b61363781614758565b840191505092915050565b600061364d8261435f565b61365781856143aa565b935061366781856020860161455e565b61367081614758565b840191505092915050565b60006136868261435f565b61369081856143bb565b93506136a081856020860161455e565b80840191505092915050565b60006136b9600b836143bb565b91506136c482614776565b600b82019050919050565b60006136dc6032836143aa565b91506136e78261479f565b604082019050919050565b60006136ff6025836143aa565b915061370a826147ee565b604082019050919050565b6000613722601c836143aa565b915061372d8261483d565b602082019050919050565b6000613745600e836143bb565b915061375082614866565b600e82019050919050565b60006137686026836143bb565b91506137738261488f565b602682019050919050565b600061378b6024836143aa565b9150613796826148de565b604082019050919050565b60006137ae6019836143aa565b91506137b98261492d565b602082019050919050565b60006137d16029836143aa565b91506137dc82614956565b604082019050919050565b60006137f46034836143aa565b91506137ff826149a5565b604082019050919050565b6000613817602a836143bb565b9150613822826149f4565b602a82019050919050565b600061383a6004836143bb565b915061384582614a43565b600482019050919050565b600061385d603e836143aa565b915061386882614a6c565b604082019050919050565b60006138806020836143aa565b915061388b82614abb565b602082019050919050565b60006138a3600a836143bb565b91506138ae82614ae4565b600a82019050919050565b60006138c66018836143aa565b91506138d182614b0d565b602082019050919050565b60006138e96021836143aa565b91506138f482614b36565b604082019050919050565b600061390c601d836143bb565b915061391782614b85565b601d82019050919050565b600061392f6032836143aa565b915061393a82614bae565b604082019050919050565b6000613952604a836143bb565b915061395d82614bfd565b604a82019050919050565b6000613975603d836143bb565b915061398082614c72565b603d82019050919050565b6000613998602e836143aa565b91506139a382614cc1565b604082019050919050565b60006139bb6028836143bb565b91506139c682614d10565b602882019050919050565b600060a08301600083015184820360008601526139ee8282613609565b91505060208301518482036020860152613a088282613609565b9150506040830151613a1d6040860182613bbc565b506060830151613a306060860182613bbc565b506080830151613a436080860182613bbc565b508091505092915050565b600061010083016000830151613a676000860182613bbc565b5060208301518482036020860152613a7f8282613609565b91505060408301518482036040860152613a998282613609565b9150506060830151613aae6060860182613bbc565b506080830151613ac16080860182613bbc565b5060a0830151613ad460a0860182613bbc565b5060c0830151613ae760c0860182613bbc565b5060e0830151613afa60e0860182613bbc565b508091505092915050565b600061010083016000830151613b1e6000860182613bbc565b5060208301518482036020860152613b368282613609565b91505060408301518482036040860152613b508282613609565b9150506060830151613b656060860182613bbc565b506080830151613b786080860182613bbc565b5060a0830151613b8b60a0860182613bbc565b5060c0830151613b9e60c0860182613bbc565b5060e0830151613bb160e0860182613bbc565b508091505092915050565b613bc581614545565b82525050565b613bd481614545565b82525050565b613beb613be682614545565b614661565b82525050565b6000613bfc82613896565b9150613c08828b61367b565b9150613c13826136ac565b9150613c1f828a61367b565b9150613c2a82613945565b9150613c36828961367b565b9150613c4182613968565b9150613c4d828861367b565b9150613c5882613738565b9150613c64828761367b565b9150613c6f826139ae565b9150613c7b828661367b565b9150613c868261380a565b9150613c92828561367b565b9150613c9d8261375b565b9150613ca9828461367b565b9150613cb48261382d565b91508190509998505050505050505050565b6000613cd1826138ff565b9150613cdd828461367b565b915081905092915050565b6000613cf48286613bda565b602082019150613d048285613bda565b602082019150613d148284613535565b601482019150819050949350505050565b6000602082019050613d3a6000830184613526565b92915050565b6000608082019050613d556000830187613526565b613d626020830186613526565b613d6f6040830185613bcb565b8181036060830152613d8181846135d0565b905095945050505050565b6000606082019050613da16000830186613526565b613dae6020830185613bcb565b613dbb6040830184613bcb565b949350505050565b60006020820190508181036000830152613ddd818461354c565b905092915050565b6000602082019050613dfa60008301846135c1565b92915050565b60006020820190508181036000830152613e1a8184613642565b905092915050565b60006060820190508181036000830152613e3c8186613642565b90508181036020830152613e508185613642565b9050613e5f6040830184613bcb565b949350505050565b60006080820190508181036000830152613e818187613642565b90508181036020830152613e958186613642565b9050613ea46040830185613bcb565b8181036060830152613eb68184613642565b905095945050505050565b60006080820190508181036000830152613edb8187613642565b90508181036020830152613eef8186613642565b9050613efe6040830185613bcb565b613f0b6060830184613bcb565b95945050505050565b600060a0820190508181036000830152613f2e8188613642565b90508181036020830152613f428187613642565b9050613f516040830186613bcb565b613f5e6060830185613bcb565b613f6b6080830184613bcb565b9695505050505050565b60006040820190508181036000830152613f8f8185613642565b9050613f9e6020830184613bcb565b9392505050565b60006060820190508181036000830152613fbf8186613642565b9050613fce6020830185613bcb565b613fdb6040830184613bcb565b949350505050565b60006080820190508181036000830152613ffd8187613642565b905061400c6020830186613bcb565b6140196040830185613bcb565b6140266060830184613bcb565b95945050505050565b60006020820190508181036000830152614048816136cf565b9050919050565b60006020820190508181036000830152614068816136f2565b9050919050565b6000602082019050818103600083015261408881613715565b9050919050565b600060208201905081810360008301526140a88161377e565b9050919050565b600060208201905081810360008301526140c8816137a1565b9050919050565b600060208201905081810360008301526140e8816137c4565b9050919050565b60006020820190508181036000830152614108816137e7565b9050919050565b6000602082019050818103600083015261412881613850565b9050919050565b6000602082019050818103600083015261414881613873565b9050919050565b60006020820190508181036000830152614168816138b9565b9050919050565b60006020820190508181036000830152614188816138dc565b9050919050565b600060208201905081810360008301526141a881613922565b9050919050565b600060208201905081810360008301526141c88161398b565b9050919050565b600060208201905081810360008301526141e981846139d1565b905092915050565b6000602082019050818103600083015261420b8184613b05565b905092915050565b60006020820190506142286000830184613bcb565b92915050565b600061010082019050614244600083018b613bcb565b8181036020830152614256818a613642565b9050818103604083015261426a8189613642565b90506142796060830188613bcb565b6142866080830187613bcb565b61429360a0830186613bcb565b6142a060c0830185613bcb565b6142ad60e0830184613bcb565b9998505050505050505050565b60006040820190506142cf6000830185613bcb565b6142dc6020830184613bcb565b9392505050565b60006142ed6142fe565b90506142f982826145c3565b919050565b6000604051905090565b600067ffffffffffffffff82111561432357614322614729565b5b61432c82614758565b9050602081019050919050565b6000819050602082019050919050565b600081519050919050565b600081519050919050565b600081519050919050565b6000602082019050919050565b600082825260208201905092915050565b600082825260208201905092915050565b600082825260208201905092915050565b600082825260208201905092915050565b600081905092915050565b60006143d182614545565b91506143dc83614545565b9250827fffffffffffffffffffffffffffffffffffffffffffffffffffffffffffffffff038211156144115761441061469c565b5b828201905092915050565b600061442782614545565b915061443283614545565b925082614442576144416146cb565b5b828204905092915050565b600061445882614545565b915061446383614545565b9250817fffffffffffffffffffffffffffffffffffffffffffffffffffffffffffffffff048311821515161561449c5761449b61469c565b5b828202905092915050565b60006144b282614545565b91506144bd83614545565b9250828210156144d0576144cf61469c565b5b828203905092915050565b60006144e682614525565b9050919050565b60008115159050919050565b60007fffffffff0000000000000000000000000000000000000000000000000000000082169050919050565b600073ffffffffffffffffffffffffffffffffffffffff82169050919050565b6000819050919050565b82818337600083830152505050565b60005b8381101561457c578082015181840152602081019050614561565b8381111561458b576000848401525b50505050565b600060028204905060018216806145a957607f821691505b602082108114156145bd576145bc6146fa565b5b50919050565b6145cc82614758565b810181811067ffffffffffffffff821117156145eb576145ea614729565b5b80604052505050565b60006145ff82614545565b91507fffffffffffffffffffffffffffffffffffffffffffffffffffffffffffffffff8214156146325761463161469c565b5b600182019050919050565b60006146488261464f565b9050919050565b600061465a82614769565b9050919050565b6000819050919050565b600061467682614545565b915061468183614545565b925082614691576146906146cb565b5b828206905092915050565b7f4e487b7100000000000000000000000000000000000000000000000000000000600052601160045260246000fd5b7f4e487b7100000000000000000000000000000000000000000000000000000000600052601260045260246000fd5b7f4e487b7100000000000000000000000000000000000000000000000000000000600052602260045260246000fd5b7f4e487b7100000000000000000000000000000000000000000000000000000000600052604160045260246000fd5b6000601f19601f8301169050919050565b60008160601b9050919050565b7f202d2d204e465420233a20000000000000000000000000000000000000000000600082015250565b7f4552433732313a207472616e7366657220746f206e6f6e20455243373231526560008201527f63656976657220696d706c656d656e7465720000000000000000000000000000602082015250565b7f4552433732313a207472616e736665722066726f6d20696e636f72726563742060008201527f6f776e6572000000000000000000000000000000000000000000000000000000602082015250565b7f4552433732313a20746f6b656e20616c7265616479206d696e74656400000000600082015250565b7f2c20226d61785f76616c7565223a000000000000000000000000000000000000600082015250565b7f7d2c207b202274726169745f74797065223a202241657269616c222c2022766160008201527f6c7565223a200000000000000000000000000000000000000000000000000000602082015250565b7f4552433732313a207472616e7366657220746f20746865207a65726f2061646460008201527f7265737300000000000000000000000000000000000000000000000000000000602082015250565b7f4552433732313a20617070726f766520746f2063616c6c657200000000000000600082015250565b7f4552433732313a2061646472657373207a65726f206973206e6f74206120766160008201527f6c6964206f776e65720000000000000000000000000000000000000000000000602082015250565b7f4572726f723a20706572736f6e6167656d20707265636973612074657220485060008201527f207061726120617461636172206f20626f73732e000000000000000000000000602082015250565b7f7d2c207b202274726169745f74797065223a202254756265526964696e67222c60008201527f202276616c7565223a2000000000000000000000000000000000000000000000602082015250565b7f7d205d7d00000000000000000000000000000000000000000000000000000000600082015250565b7f4552433732313a20617070726f76652063616c6c6572206973206e6f7420746f60008201527f6b656e206f776e6572206e6f7220617070726f76656420666f7220616c6c0000602082015250565b7f4552433732313a206d696e7420746f20746865207a65726f2061646472657373600082015250565b7f7b226e616d65223a202200000000000000000000000000000000000000000000600082015250565b7f4552433732313a20696e76616c696420746f6b656e2049440000000000000000600082015250565b7f4552433732313a20617070726f76616c20746f2063757272656e74206f776e6560008201527f7200000000000000000000000000000000000000000000000000000000000000602082015250565b7f646174613a6170706c69636174696f6e2f6a736f6e3b6261736536342c000000600082015250565b7f4572726f723a205069636f207072656369736120746572204f6e64617320706160008201527f7261207065726d697469722073757266652e0000000000000000000000000000602082015250565b7f222c20226465736372697074696f6e223a202245737461204e4654206461206160008201527f636573736f20616f206d6575206a6f676f204e465421222c2022696d6167652260208201527f3a2022697066733a2f2f00000000000000000000000000000000000000000000604082015250565b7f222c202261747472696275746573223a205b207b202274726169745f7479706560008201527f223a20224865616c746820506f696e7473222c202276616c7565223a20000000602082015250565b7f4552433732313a2063616c6c6572206973206e6f7420746f6b656e206f776e6560008201527f72206e6f7220617070726f766564000000000000000000000000000000000000602082015250565b7f7d2c207b202274726169745f74797065223a20224d616e6575766572222c202260008201527f76616c7565223a20000000000000000000000000000000000000000000000000602082015250565b614d68816144db565b8114614d7357600080fd5b50565b614d7f816144ed565b8114614d8a57600080fd5b50565b614d96816144f9565b8114614da157600080fd5b50565b614dad81614545565b8114614db857600080fd5b5056fe0a41746c6574612025732066657a206f2064726f7020636f6d2025732064652048502e486162696c696461646573202d206d616e6f627261733a2025732c207475626f733a2025732c20616572656f3a20257353757266697374612066657a20756d20416572656f20636f6d206e6f74612025733d3d3d3d3d3d3d3d3d3d205065676f752061206f6e6461203d3d3d3d3d3d3d3d3d4142434445464748494a4b4c4d4e4f505152535455565758595a6162636465666768696a6b6c6d6e6f707172737475767778797a303132333435363738392b2f5375726669737461207265616c697a6f75204d616e6f62726120636f6d206e6f74612025730a5069636f2025732074656d202573206465204f6e64617320652025732064652063616e736569726120706f72206f6e64610a4f207069636f2061696e64612074656d202573206f6e64617320616e746573206465207465726d696e6172206f207377656c6c5375726669737461207065676f7520756d205475626f20636f6d206e6f74612025734d696e746f75204e465420632f20746f6b656e4964202573206520636861726163746572496e6465782025734f20737572666973746120676173746f7520656e65726769612065206669636f7520636f6d2048503a2025730aa2646970667358221220b90a0bb700aa5f5076ca460749591a744c667fecae4688187060b8ae51c9fd6f64736f6c634300080400332a2a20486162696c6964616465733a206d616e6f627261733a2025732c207475626f733a2025732c20616572656f3a202573200a2d2d2d2d2d2d2d2d2d2d2d2d2d2d2d2d2d2d2d2d2d2d2d2d2d2d2d2d2d2d2d2d2d2d2d2d2d2d0a5069636f20646520537572666520696e696369616c697a61646f20636f6d207375636573736f20257320636f6d202573206465206f6e6461732c20696d672025732a2a2041746c65746120696e696369616c697a61646f3a20257320636f6d2025732064652048502c20696d67202573",
  "linkReferences": {},
  "deployedLinkReferences": {}
}