{
  "_format": "hh-sol-artifact-1",
  "contractName": "MySurfGame",
  "sourceName": "contracts/MySurfGame.sol",
  "abi": [
    {
      "inputs": [
        {
          "internalType": "string[]",
          "name": "characterNames",
          "type": "string[]"
        },
        {
          "internalType": "string[]",
          "name": "characterImageURIs",
          "type": "string[]"
        },
        {
          "internalType": "uint256[]",
          "name": "characterHp",
          "type": "uint256[]"
        },
        {
          "internalType": "uint256[]",
          "name": "characterManeuver",
          "type": "uint256[]"
        },
        {
          "internalType": "uint256[]",
          "name": "characterTubeRiding",
          "type": "uint256[]"
        },
        {
          "internalType": "uint256[]",
          "name": "characterAerial",
          "type": "uint256[]"
        },
        {
          "internalType": "string",
          "name": "bossName",
          "type": "string"
        },
        {
          "internalType": "string",
          "name": "bossImageURI",
          "type": "string"
        },
        {
          "internalType": "uint256",
          "name": "bossWaves",
          "type": "uint256"
        },
        {
          "internalType": "uint256",
          "name": "bossAttackDamage",
          "type": "uint256"
        }
      ],
      "stateMutability": "nonpayable",
      "type": "constructor"
    },
    {
      "anonymous": false,
      "inputs": [
        {
          "indexed": true,
          "internalType": "address",
          "name": "owner",
          "type": "address"
        },
        {
          "indexed": true,
          "internalType": "address",
          "name": "approved",
          "type": "address"
        },
        {
          "indexed": true,
          "internalType": "uint256",
          "name": "tokenId",
          "type": "uint256"
        }
      ],
      "name": "Approval",
      "type": "event"
    },
    {
      "anonymous": false,
      "inputs": [
        {
          "indexed": true,
          "internalType": "address",
          "name": "owner",
          "type": "address"
        },
        {
          "indexed": true,
          "internalType": "address",
          "name": "operator",
          "type": "address"
        },
        {
          "indexed": false,
          "internalType": "bool",
          "name": "approved",
          "type": "bool"
        }
      ],
      "name": "ApprovalForAll",
      "type": "event"
    },
    {
      "anonymous": false,
      "inputs": [
        {
          "indexed": false,
          "internalType": "uint256",
          "name": "newBossHp",
          "type": "uint256"
        },
        {
          "indexed": false,
          "internalType": "uint256",
          "name": "newPlayerHp",
          "type": "uint256"
        },
        {
          "indexed": false,
          "internalType": "uint256",
          "name": "newScore",
          "type": "uint256"
        }
      ],
      "name": "AttackComplete",
      "type": "event"
    },
    {
      "anonymous": false,
      "inputs": [
        {
          "indexed": false,
          "internalType": "address",
          "name": "sender",
          "type": "address"
        },
        {
          "indexed": false,
          "internalType": "uint256",
          "name": "tokenId",
          "type": "uint256"
        },
        {
          "indexed": false,
          "internalType": "uint256",
          "name": "characterIndex",
          "type": "uint256"
        }
      ],
      "name": "CharacterNFTMinted",
      "type": "event"
    },
    {
      "anonymous": false,
      "inputs": [
        {
          "indexed": true,
          "internalType": "address",
          "name": "from",
          "type": "address"
        },
        {
          "indexed": true,
          "internalType": "address",
          "name": "to",
          "type": "address"
        },
        {
          "indexed": true,
          "internalType": "uint256",
          "name": "tokenId",
          "type": "uint256"
        }
      ],
      "name": "Transfer",
      "type": "event"
    },
    {
      "inputs": [
        {
          "internalType": "address",
          "name": "to",
          "type": "address"
        },
        {
          "internalType": "uint256",
          "name": "tokenId",
          "type": "uint256"
        }
      ],
      "name": "approve",
      "outputs": [],
      "stateMutability": "nonpayable",
      "type": "function"
    },
    {
      "inputs": [],
      "name": "attackBoss",
      "outputs": [],
      "stateMutability": "nonpayable",
      "type": "function"
    },
    {
      "inputs": [
        {
          "internalType": "address",
          "name": "owner",
          "type": "address"
        }
      ],
      "name": "balanceOf",
      "outputs": [
        {
          "internalType": "uint256",
          "name": "",
          "type": "uint256"
        }
      ],
      "stateMutability": "view",
      "type": "function"
    },
    {
      "inputs": [],
      "name": "bigBoss",
      "outputs": [
        {
          "internalType": "string",
          "name": "name",
          "type": "string"
        },
        {
          "internalType": "string",
          "name": "imageURI",
          "type": "string"
        },
        {
          "internalType": "uint256",
          "name": "waves",
          "type": "uint256"
        },
        {
          "internalType": "uint256",
          "name": "maxWaves",
          "type": "uint256"
        },
        {
          "internalType": "uint256",
          "name": "attackDamage",
          "type": "uint256"
        }
      ],
      "stateMutability": "view",
      "type": "function"
    },
    {
      "inputs": [],
      "name": "checkIfUserHasNFT",
      "outputs": [
        {
          "components": [
            {
              "internalType": "uint256",
              "name": "characterIndex",
              "type": "uint256"
            },
            {
              "internalType": "string",
              "name": "name",
              "type": "string"
            },
            {
              "internalType": "string",
              "name": "imageURI",
              "type": "string"
            },
            {
              "internalType": "uint256",
              "name": "hp",
              "type": "uint256"
            },
            {
              "internalType": "uint256",
              "name": "maxHp",
              "type": "uint256"
            },
            {
              "internalType": "uint256",
              "name": "maneuver",
              "type": "uint256"
            },
            {
              "internalType": "uint256",
              "name": "tubeRiding",
              "type": "uint256"
            },
            {
              "internalType": "uint256",
              "name": "aerial",
              "type": "uint256"
            },
            {
              "internalType": "address",
              "name": "owner",
              "type": "address"
            },
            {
              "internalType": "uint256",
              "name": "score",
              "type": "uint256"
            }
          ],
          "internalType": "struct MySurfGame.CharacterAttributes",
          "name": "",
          "type": "tuple"
        }
      ],
      "stateMutability": "view",
      "type": "function"
    },
    {
      "inputs": [],
      "name": "getAllDefaultCharacters",
      "outputs": [
        {
          "components": [
            {
              "internalType": "uint256",
              "name": "characterIndex",
              "type": "uint256"
            },
            {
              "internalType": "string",
              "name": "name",
              "type": "string"
            },
            {
              "internalType": "string",
              "name": "imageURI",
              "type": "string"
            },
            {
              "internalType": "uint256",
              "name": "hp",
              "type": "uint256"
            },
            {
              "internalType": "uint256",
              "name": "maxHp",
              "type": "uint256"
            },
            {
              "internalType": "uint256",
              "name": "maneuver",
              "type": "uint256"
            },
            {
              "internalType": "uint256",
              "name": "tubeRiding",
              "type": "uint256"
            },
            {
              "internalType": "uint256",
              "name": "aerial",
              "type": "uint256"
            },
            {
              "internalType": "address",
              "name": "owner",
              "type": "address"
            },
            {
              "internalType": "uint256",
              "name": "score",
              "type": "uint256"
            }
          ],
          "internalType": "struct MySurfGame.CharacterAttributes[]",
          "name": "",
          "type": "tuple[]"
        }
      ],
      "stateMutability": "view",
      "type": "function"
    },
    {
      "inputs": [],
      "name": "getAllPlayers",
      "outputs": [
        {
          "components": [
            {
              "internalType": "uint256",
              "name": "characterIndex",
              "type": "uint256"
            },
            {
              "internalType": "string",
              "name": "name",
              "type": "string"
            },
            {
              "internalType": "string",
              "name": "imageURI",
              "type": "string"
            },
            {
              "internalType": "uint256",
              "name": "hp",
              "type": "uint256"
            },
            {
              "internalType": "uint256",
              "name": "maxHp",
              "type": "uint256"
            },
            {
              "internalType": "uint256",
              "name": "maneuver",
              "type": "uint256"
            },
            {
              "internalType": "uint256",
              "name": "tubeRiding",
              "type": "uint256"
            },
            {
              "internalType": "uint256",
              "name": "aerial",
              "type": "uint256"
            },
            {
              "internalType": "address",
              "name": "owner",
              "type": "address"
            },
            {
              "internalType": "uint256",
              "name": "score",
              "type": "uint256"
            }
          ],
          "internalType": "struct MySurfGame.CharacterAttributes[]",
          "name": "",
          "type": "tuple[]"
        }
      ],
      "stateMutability": "view",
      "type": "function"
    },
    {
      "inputs": [
        {
          "internalType": "uint256",
          "name": "tokenId",
          "type": "uint256"
        }
      ],
      "name": "getApproved",
      "outputs": [
        {
          "internalType": "address",
          "name": "",
          "type": "address"
        }
      ],
      "stateMutability": "view",
      "type": "function"
    },
    {
      "inputs": [],
      "name": "getBigBoss",
      "outputs": [
        {
          "components": [
            {
              "internalType": "string",
              "name": "name",
              "type": "string"
            },
            {
              "internalType": "string",
              "name": "imageURI",
              "type": "string"
            },
            {
              "internalType": "uint256",
              "name": "waves",
              "type": "uint256"
            },
            {
              "internalType": "uint256",
              "name": "maxWaves",
              "type": "uint256"
            },
            {
              "internalType": "uint256",
              "name": "attackDamage",
              "type": "uint256"
            }
          ],
          "internalType": "struct MySurfGame.BigBoss",
          "name": "",
          "type": "tuple"
        }
      ],
      "stateMutability": "view",
      "type": "function"
    },
    {
      "inputs": [
        {
          "internalType": "address",
          "name": "owner",
          "type": "address"
        },
        {
          "internalType": "address",
          "name": "operator",
          "type": "address"
        }
      ],
      "name": "isApprovedForAll",
      "outputs": [
        {
          "internalType": "bool",
          "name": "",
          "type": "bool"
        }
      ],
      "stateMutability": "view",
      "type": "function"
    },
    {
      "inputs": [
        {
          "internalType": "uint256",
          "name": "_characterIndex",
          "type": "uint256"
        }
      ],
      "name": "mintCharacterNFT",
      "outputs": [],
      "stateMutability": "nonpayable",
      "type": "function"
    },
    {
      "inputs": [],
      "name": "name",
      "outputs": [
        {
          "internalType": "string",
          "name": "",
          "type": "string"
        }
      ],
      "stateMutability": "view",
      "type": "function"
    },
    {
      "inputs": [
        {
          "internalType": "uint256",
          "name": "",
          "type": "uint256"
        }
      ],
      "name": "nftHolderAttributes",
      "outputs": [
        {
          "internalType": "uint256",
          "name": "characterIndex",
          "type": "uint256"
        },
        {
          "internalType": "string",
          "name": "name",
          "type": "string"
        },
        {
          "internalType": "string",
          "name": "imageURI",
          "type": "string"
        },
        {
          "internalType": "uint256",
          "name": "hp",
          "type": "uint256"
        },
        {
          "internalType": "uint256",
          "name": "maxHp",
          "type": "uint256"
        },
        {
          "internalType": "uint256",
          "name": "maneuver",
          "type": "uint256"
        },
        {
          "internalType": "uint256",
          "name": "tubeRiding",
          "type": "uint256"
        },
        {
          "internalType": "uint256",
          "name": "aerial",
          "type": "uint256"
        },
        {
          "internalType": "address",
          "name": "owner",
          "type": "address"
        },
        {
          "internalType": "uint256",
          "name": "score",
          "type": "uint256"
        }
      ],
      "stateMutability": "view",
      "type": "function"
    },
    {
      "inputs": [
        {
          "internalType": "address",
          "name": "",
          "type": "address"
        }
      ],
      "name": "nftHolders",
      "outputs": [
        {
          "internalType": "uint256",
          "name": "",
          "type": "uint256"
        }
      ],
      "stateMutability": "view",
      "type": "function"
    },
    {
      "inputs": [
        {
          "internalType": "uint256",
          "name": "tokenId",
          "type": "uint256"
        }
      ],
      "name": "ownerOf",
      "outputs": [
        {
          "internalType": "address",
          "name": "",
          "type": "address"
        }
      ],
      "stateMutability": "view",
      "type": "function"
    },
    {
      "inputs": [
        {
          "internalType": "uint256",
          "name": "",
          "type": "uint256"
        }
      ],
      "name": "players",
      "outputs": [
        {
          "internalType": "address",
          "name": "",
          "type": "address"
        }
      ],
      "stateMutability": "view",
      "type": "function"
    },
    {
      "inputs": [
        {
          "internalType": "uint256",
          "name": "number",
          "type": "uint256"
        }
      ],
      "name": "random",
      "outputs": [
        {
          "internalType": "uint256",
          "name": "",
          "type": "uint256"
        }
      ],
      "stateMutability": "view",
      "type": "function"
    },
    {
      "inputs": [
        {
          "internalType": "address",
          "name": "from",
          "type": "address"
        },
        {
          "internalType": "address",
          "name": "to",
          "type": "address"
        },
        {
          "internalType": "uint256",
          "name": "tokenId",
          "type": "uint256"
        }
      ],
      "name": "safeTransferFrom",
      "outputs": [],
      "stateMutability": "nonpayable",
      "type": "function"
    },
    {
      "inputs": [
        {
          "internalType": "address",
          "name": "from",
          "type": "address"
        },
        {
          "internalType": "address",
          "name": "to",
          "type": "address"
        },
        {
          "internalType": "uint256",
          "name": "tokenId",
          "type": "uint256"
        },
        {
          "internalType": "bytes",
          "name": "data",
          "type": "bytes"
        }
      ],
      "name": "safeTransferFrom",
      "outputs": [],
      "stateMutability": "nonpayable",
      "type": "function"
    },
    {
      "inputs": [
        {
          "internalType": "address",
          "name": "operator",
          "type": "address"
        },
        {
          "internalType": "bool",
          "name": "approved",
          "type": "bool"
        }
      ],
      "name": "setApprovalForAll",
      "outputs": [],
      "stateMutability": "nonpayable",
      "type": "function"
    },
    {
      "inputs": [
        {
          "internalType": "bytes4",
          "name": "interfaceId",
          "type": "bytes4"
        }
      ],
      "name": "supportsInterface",
      "outputs": [
        {
          "internalType": "bool",
          "name": "",
          "type": "bool"
        }
      ],
      "stateMutability": "view",
      "type": "function"
    },
    {
      "inputs": [],
      "name": "symbol",
      "outputs": [
        {
          "internalType": "string",
          "name": "",
          "type": "string"
        }
      ],
      "stateMutability": "view",
      "type": "function"
    },
    {
      "inputs": [
        {
          "internalType": "uint256",
          "name": "_tokenId",
          "type": "uint256"
        }
      ],
      "name": "tokenURI",
      "outputs": [
        {
          "internalType": "string",
          "name": "",
          "type": "string"
        }
      ],
      "stateMutability": "view",
      "type": "function"
    },
    {
      "inputs": [
        {
          "internalType": "address",
          "name": "from",
          "type": "address"
        },
        {
          "internalType": "address",
          "name": "to",
          "type": "address"
        },
        {
          "internalType": "uint256",
          "name": "tokenId",
          "type": "uint256"
        }
      ],
      "name": "transferFrom",
      "outputs": [],
      "stateMutability": "nonpayable",
      "type": "function"
    }
  ],
  "bytecode": "0x60806040523480156200001157600080fd5b5060405162006a7038038062006a70833981810160405281019062000037919062000dd2565b6040518060400160405280600781526020017f53757266657273000000000000000000000000000000000000000000000000008152506040518060400160405280600681526020017f53555246455200000000000000000000000000000000000000000000000000008152508160009080519060200190620000bb92919062000b3a565b508060019080519060200190620000d492919062000b3a565b5050506040518060a0016040528085815260200184815260200183815260200183815260200182815250600960008201518160000190805190602001906200011e92919062000b3a565b5060208201518160010190805190602001906200013d92919062000b3a565b50604082015181600201556060820151816003015560808201518160040155905050620002c060405180608001604052806041815260200162006a0060419139600960000180546200018f906200122c565b80601f0160208091040260200160405190810160405280929190818152602001828054620001bd906200122c565b80156200020e5780601f10620001e2576101008083540402835291602001916200020e565b820191906000526020600020905b815481529060010190602001808311620001f057829003601f168201915b5050505050600960020154600960010180546200022b906200122c565b80601f016020809104026020016040519081016040528092919081815260200182805462000259906200122c565b8015620002aa5780601f106200027e57610100808354040283529160200191620002aa565b820191906000526020600020905b8154815290600101906020018083116200028c57829003601f168201915b50505050506200090060201b6200233a1760201c565b60005b8a51811015620008d85760076040518061014001604052808381526020018d84815181106200031b577f4e487b7100000000000000000000000000000000000000000000000000000000600052603260045260246000fd5b602002602001015181526020018c848151811062000362577f4e487b7100000000000000000000000000000000000000000000000000000000600052603260045260246000fd5b602002602001015181526020018b8481518110620003a9577f4e487b7100000000000000000000000000000000000000000000000000000000600052603260045260246000fd5b602002602001015181526020018b8481518110620003f0577f4e487b7100000000000000000000000000000000000000000000000000000000600052603260045260246000fd5b602002602001015181526020018a848151811062000437577f4e487b7100000000000000000000000000000000000000000000000000000000600052603260045260246000fd5b602002602001015181526020018984815181106200047e577f4e487b7100000000000000000000000000000000000000000000000000000000600052603260045260246000fd5b60200260200101518152602001888481518110620004c5577f4e487b7100000000000000000000000000000000000000000000000000000000600052603260045260246000fd5b60200260200101518152602001600073ffffffffffffffffffffffffffffffffffffffff168152602001600081525090806001815401808255809150506001900390600052602060002090600a02016000909190919091506000820151816000015560208201518160010190805190602001906200054592919062000b3a565b5060408201518160020190805190602001906200056492919062000b3a565b50606082015181600301556080820151816004015560a0820151816005015560c0820151816006015560e082015181600701556101008201518160080160006101000a81548173ffffffffffffffffffffffffffffffffffffffff021916908373ffffffffffffffffffffffffffffffffffffffff1602179055506101208201518160090155505060006007828154811062000629577f4e487b7100000000000000000000000000000000000000000000000000000000600052603260045260246000fd5b90600052602060002090600a020160405180610140016040529081600082015481526020016001820180546200065f906200122c565b80601f01602080910402602001604051908101604052809291908181526020018280546200068d906200122c565b8015620006de5780601f10620006b257610100808354040283529160200191620006de565b820191906000526020600020905b815481529060010190602001808311620006c057829003601f168201915b50505050508152602001600282018054620006f9906200122c565b80601f016020809104026020016040519081016040528092919081815260200182805462000727906200122c565b8015620007785780601f106200074c5761010080835404028352916020019162000778565b820191906000526020600020905b8154815290600101906020018083116200075a57829003601f168201915b5050505050815260200160038201548152602001600482015481526020016005820154815260200160068201548152602001600782015481526020016008820160009054906101000a900473ffffffffffffffffffffffffffffffffffffffff1673ffffffffffffffffffffffffffffffffffffffff1673ffffffffffffffffffffffffffffffffffffffff168152602001600982015481525050905062000844604051806060016040528060278152602001620069d960279139620009ac60201b620023dc1760201c565b620008826040518060600160405280602f815260200162006a41602f91398260200151836060015184604001516200090060201b6200233a1760201c565b620008c0604051806060016040528060348152602001620069a5603491398260a001518360c001518460e0015162000a4f60201b620024751760201c565b50600181620008d091906200118f565b9050620002c3565b50620008f0600662000afb60201b620025171760201c565b5050505050505050505062001350565b620009a6848484846040516024016200091d949392919062001000565b6040516020818303038152906040527f8d142cdd000000000000000000000000000000000000000000000000000000007bffffffffffffffffffffffffffffffffffffffffffffffffffffffff19166020820180517bffffffffffffffffffffffffffffffffffffffffffffffffffffffff838183161783525050505062000b1160201b60201c565b50505050565b62000a4c81604051602401620009c3919062000fdc565b6040516020818303038152906040527f41304fac000000000000000000000000000000000000000000000000000000007bffffffffffffffffffffffffffffffffffffffffffffffffffffffff19166020820180517bffffffffffffffffffffffffffffffffffffffffffffffffffffffff838183161783525050505062000b1160201b60201c565b50565b62000af58484848460405160240162000a6c949392919062001062565b6040516020818303038152906040527f08ee5666000000000000000000000000000000000000000000000000000000007bffffffffffffffffffffffffffffffffffffffffffffffffffffffff19166020820180517bffffffffffffffffffffffffffffffffffffffffffffffffffffffff838183161783525050505062000b1160201b60201c565b50505050565b6001816000016000828254019250508190555050565b60008151905060006a636f6e736f6c652e6c6f679050602083016000808483855afa5050505050565b82805462000b48906200122c565b90600052602060002090601f01602090048101928262000b6c576000855562000bb8565b82601f1062000b8757805160ff191683800117855562000bb8565b8280016001018555821562000bb8579182015b8281111562000bb757825182559160200191906001019062000b9a565b5b50905062000bc7919062000bcb565b5090565b5b8082111562000be657600081600090555060010162000bcc565b5090565b600062000c0162000bfb84620010df565b620010b6565b9050808382526020820190508285602086028201111562000c2157600080fd5b60005b8581101562000c7057815167ffffffffffffffff81111562000c4557600080fd5b80860162000c54898262000d8e565b8552602085019450602084019350505060018101905062000c24565b5050509392505050565b600062000c9162000c8b846200110e565b620010b6565b9050808382526020820190508285602086028201111562000cb157600080fd5b60005b8581101562000ce5578162000cca888262000dbb565b84526020840193506020830192505060018101905062000cb4565b5050509392505050565b600062000d0662000d00846200113d565b620010b6565b90508281526020810184848401111562000d1f57600080fd5b62000d2c848285620011f6565b509392505050565b600082601f83011262000d4657600080fd5b815162000d5884826020860162000bea565b91505092915050565b600082601f83011262000d7357600080fd5b815162000d8584826020860162000c7a565b91505092915050565b600082601f83011262000da057600080fd5b815162000db284826020860162000cef565b91505092915050565b60008151905062000dcc8162001336565b92915050565b6000806000806000806000806000806101408b8d03121562000df357600080fd5b60008b015167ffffffffffffffff81111562000e0e57600080fd5b62000e1c8d828e0162000d34565b9a505060208b015167ffffffffffffffff81111562000e3a57600080fd5b62000e488d828e0162000d34565b99505060408b015167ffffffffffffffff81111562000e6657600080fd5b62000e748d828e0162000d61565b98505060608b015167ffffffffffffffff81111562000e9257600080fd5b62000ea08d828e0162000d61565b97505060808b015167ffffffffffffffff81111562000ebe57600080fd5b62000ecc8d828e0162000d61565b96505060a08b015167ffffffffffffffff81111562000eea57600080fd5b62000ef88d828e0162000d61565b95505060c08b015167ffffffffffffffff81111562000f1657600080fd5b62000f248d828e0162000d8e565b94505060e08b015167ffffffffffffffff81111562000f4257600080fd5b62000f508d828e0162000d8e565b93505061010062000f648d828e0162000dbb565b92505061012062000f788d828e0162000dbb565b9150509295989b9194979a5092959850565b600062000f978262001173565b62000fa381856200117e565b935062000fb5818560208601620011f6565b62000fc08162001325565b840191505092915050565b62000fd681620011ec565b82525050565b6000602082019050818103600083015262000ff8818462000f8a565b905092915050565b600060808201905081810360008301526200101c818762000f8a565b9050818103602083015262001032818662000f8a565b905062001043604083018562000fcb565b818103606083015262001057818462000f8a565b905095945050505050565b600060808201905081810360008301526200107e818762000f8a565b90506200108f602083018662000fcb565b6200109e604083018562000fcb565b620010ad606083018462000fcb565b95945050505050565b6000620010c2620010d5565b9050620010d0828262001262565b919050565b6000604051905090565b600067ffffffffffffffff821115620010fd57620010fc620012f6565b5b602082029050602081019050919050565b600067ffffffffffffffff8211156200112c576200112b620012f6565b5b602082029050602081019050919050565b600067ffffffffffffffff8211156200115b576200115a620012f6565b5b620011668262001325565b9050602081019050919050565b600081519050919050565b600082825260208201905092915050565b60006200119c82620011ec565b9150620011a983620011ec565b9250827fffffffffffffffffffffffffffffffffffffffffffffffffffffffffffffffff03821115620011e157620011e062001298565b5b828201905092915050565b6000819050919050565b60005b8381101562001216578082015181840152602081019050620011f9565b8381111562001226576000848401525b50505050565b600060028204905060018216806200124557607f821691505b602082108114156200125c576200125b620012c7565b5b50919050565b6200126d8262001325565b810181811067ffffffffffffffff821117156200128f576200128e620012f6565b5b80604052505050565b7f4e487b7100000000000000000000000000000000000000000000000000000000600052601160045260246000fd5b7f4e487b7100000000000000000000000000000000000000000000000000000000600052602260045260246000fd5b7f4e487b7100000000000000000000000000000000000000000000000000000000600052604160045260246000fd5b6000601f19601f8301169050919050565b6200134181620011ec565b81146200134d57600080fd5b50565b61564580620013606000396000f3fe608060405234801561001057600080fd5b50600436106101585760003560e01c8063a22cb465116100c3578063c8cf27f41161007c578063c8cf27f41461040c578063d4f24c5b1461042a578063e985e9c514610434578063efa1c48214610464578063f71d96cb14610482578063f8b81ef7146104b257610158565b8063a22cb46514610334578063a9c3267914610350578063b863bd3714610372578063b88d4fde146103a2578063b953084e146103be578063c87b56dd146103dc57610158565b806342842e0e1161011557806342842e0e146102315780636352211e1461024d57806370a082311461027d5780637df124a1146102ad57806395d89b41146102dd57806398da4c95146102fb57610158565b806301ffc9a71461015d5780630665f9611461018d57806306fdde03146101ab578063081812fc146101c9578063095ea7b3146101f957806323b872dd14610215575b600080fd5b61017760048036038101906101729190613a81565b6104ce565b6040516101849190614432565b60405180910390f35b6101956105b0565b6040516101a2919061481c565b60405180910390f35b6101b361070c565b6040516101c0919061444d565b60405180910390f35b6101e360048036038101906101de9190613ad3565b61079e565b6040516101f09190614372565b60405180910390f35b610213600480360381019061020e9190613a45565b6107e4565b005b61022f600480360381019061022a919061393f565b6108fc565b005b61024b6004803603810190610246919061393f565b61095c565b005b61026760048036038101906102629190613ad3565b61097c565b6040516102749190614372565b60405180910390f35b610297600480360381019061029291906138da565b610a2e565b6040516102a49190614860565b60405180910390f35b6102c760048036038101906102c291906138da565b610ae6565b6040516102d49190614860565b60405180910390f35b6102e5610afe565b6040516102f2919061444d565b60405180910390f35b61031560048036038101906103109190613ad3565b610b90565b60405161032b9a9998979695949392919061487b565b60405180910390f35b61034e60048036038101906103499190613a09565b610d14565b005b610358610d2a565b604051610369959493929190614561565b60405180910390f35b61038c60048036038101906103879190613ad3565b610e5e565b6040516103999190614860565b60405180910390f35b6103bc60048036038101906103b7919061398e565b610ea0565b005b6103c6610f02565b6040516103d39190614410565b60405180910390f35b6103f660048036038101906103f19190613ad3565b611122565b604051610403919061444d565b60405180910390f35b6104146113da565b604051610421919061483e565b60405180910390f35b610432611627565b005b61044e60048036038101906104499190613903565b611a08565b60405161045b9190614432565b60405180910390f35b61046c611a9c565b6040516104799190614410565b60405180910390f35b61049c60048036038101906104979190613ad3565b611d94565b6040516104a99190614372565b60405180910390f35b6104cc60048036038101906104c79190613ad3565b611dc7565b005b60007f80ac58cd000000000000000000000000000000000000000000000000000000007bffffffffffffffffffffffffffffffffffffffffffffffffffffffff1916827bffffffffffffffffffffffffffffffffffffffffffffffffffffffff1916148061059957507f5b5e139f000000000000000000000000000000000000000000000000000000007bffffffffffffffffffffffffffffffffffffffffffffffffffffffff1916827bffffffffffffffffffffffffffffffffffffffffffffffffffffffff1916145b806105a957506105a88261252d565b5b9050919050565b6105b86136ce565b60096040518060a00160405290816000820180546105d590614c0a565b80601f016020809104026020016040519081016040528092919081815260200182805461060190614c0a565b801561064e5780601f106106235761010080835404028352916020019161064e565b820191906000526020600020905b81548152906001019060200180831161063157829003601f168201915b5050505050815260200160018201805461066790614c0a565b80601f016020809104026020016040519081016040528092919081815260200182805461069390614c0a565b80156106e05780601f106106b5576101008083540402835291602001916106e0565b820191906000526020600020905b8154815290600101906020018083116106c357829003601f168201915b505050505081526020016002820154815260200160038201548152602001600482015481525050905090565b60606000805461071b90614c0a565b80601f016020809104026020016040519081016040528092919081815260200182805461074790614c0a565b80156107945780601f1061076957610100808354040283529160200191610794565b820191906000526020600020905b81548152906001019060200180831161077757829003601f168201915b5050505050905090565b60006107a982612597565b6004600083815260200190815260200160002060009054906101000a900473ffffffffffffffffffffffffffffffffffffffff169050919050565b60006107ef8261097c565b90508073ffffffffffffffffffffffffffffffffffffffff168373ffffffffffffffffffffffffffffffffffffffff161415610860576040517f08c379a0000000000000000000000000000000000000000000000000000000008152600401610857906147bc565b60405180910390fd5b8073ffffffffffffffffffffffffffffffffffffffff1661087f6125e2565b73ffffffffffffffffffffffffffffffffffffffff1614806108ae57506108ad816108a86125e2565b611a08565b5b6108ed576040517f08c379a00000000000000000000000000000000000000000000000000000000081526004016108e49061475c565b60405180910390fd5b6108f783836125ea565b505050565b61090d6109076125e2565b826126a3565b61094c576040517f08c379a0000000000000000000000000000000000000000000000000000000008152600401610943906147fc565b60405180910390fd5b610957838383612738565b505050565b61097783838360405180602001604052806000815250610ea0565b505050565b6000806002600084815260200190815260200160002060009054906101000a900473ffffffffffffffffffffffffffffffffffffffff169050600073ffffffffffffffffffffffffffffffffffffffff168173ffffffffffffffffffffffffffffffffffffffff161415610a25576040517f08c379a0000000000000000000000000000000000000000000000000000000008152600401610a1c9061479c565b60405180910390fd5b80915050919050565b60008073ffffffffffffffffffffffffffffffffffffffff168273ffffffffffffffffffffffffffffffffffffffff161415610a9f576040517f08c379a0000000000000000000000000000000000000000000000000000000008152600401610a969061471c565b60405180910390fd5b600360008373ffffffffffffffffffffffffffffffffffffffff1673ffffffffffffffffffffffffffffffffffffffff168152602001908152602001600020549050919050565b600e6020528060005260406000206000915090505481565b606060018054610b0d90614c0a565b80601f0160208091040260200160405190810160405280929190818152602001828054610b3990614c0a565b8015610b865780601f10610b5b57610100808354040283529160200191610b86565b820191906000526020600020905b815481529060010190602001808311610b6957829003601f168201915b5050505050905090565b6008602052806000526040600020600091509050806000015490806001018054610bb990614c0a565b80601f0160208091040260200160405190810160405280929190818152602001828054610be590614c0a565b8015610c325780601f10610c0757610100808354040283529160200191610c32565b820191906000526020600020905b815481529060010190602001808311610c1557829003601f168201915b505050505090806002018054610c4790614c0a565b80601f0160208091040260200160405190810160405280929190818152602001828054610c7390614c0a565b8015610cc05780601f10610c9557610100808354040283529160200191610cc0565b820191906000526020600020905b815481529060010190602001808311610ca357829003601f168201915b5050505050908060030154908060040154908060050154908060060154908060070154908060080160009054906101000a900473ffffffffffffffffffffffffffffffffffffffff1690806009015490508a565b610d26610d1f6125e2565b838361299f565b5050565b6009806000018054610d3b90614c0a565b80601f0160208091040260200160405190810160405280929190818152602001828054610d6790614c0a565b8015610db45780601f10610d8957610100808354040283529160200191610db4565b820191906000526020600020905b815481529060010190602001808311610d9757829003601f168201915b505050505090806001018054610dc990614c0a565b80601f0160208091040260200160405190810160405280929190818152602001828054610df590614c0a565b8015610e425780601f10610e1757610100808354040283529160200191610e42565b820191906000526020600020905b815481529060010190602001808311610e2557829003601f168201915b5050505050908060020154908060030154908060040154905085565b600081424433604051602001610e7693929190614335565b6040516020818303038152906040528051906020012060001c610e999190614ce4565b9050919050565b610eb1610eab6125e2565b836126a3565b610ef0576040517f08c379a0000000000000000000000000000000000000000000000000000000008152600401610ee7906147fc565b60405180910390fd5b610efc84848484612b0c565b50505050565b60606007805480602002602001604051908101604052809291908181526020016000905b8282101561111957838290600052602060002090600a02016040518061014001604052908160008201548152602001600182018054610f6490614c0a565b80601f0160208091040260200160405190810160405280929190818152602001828054610f9090614c0a565b8015610fdd5780601f10610fb257610100808354040283529160200191610fdd565b820191906000526020600020905b815481529060010190602001808311610fc057829003601f168201915b50505050508152602001600282018054610ff690614c0a565b80601f016020809104026020016040519081016040528092919081815260200182805461102290614c0a565b801561106f5780601f106110445761010080835404028352916020019161106f565b820191906000526020600020905b81548152906001019060200180831161105257829003601f168201915b5050505050815260200160038201548152602001600482015481526020016005820154815260200160068201548152602001600782015481526020016008820160009054906101000a900473ffffffffffffffffffffffffffffffffffffffff1673ffffffffffffffffffffffffffffffffffffffff1673ffffffffffffffffffffffffffffffffffffffff16815260200160098201548152505081526020019060010190610f26565b50505050905090565b6060600060086000848152602001908152602001600020604051806101400160405290816000820154815260200160018201805461115f90614c0a565b80601f016020809104026020016040519081016040528092919081815260200182805461118b90614c0a565b80156111d85780601f106111ad576101008083540402835291602001916111d8565b820191906000526020600020905b8154815290600101906020018083116111bb57829003601f168201915b505050505081526020016002820180546111f190614c0a565b80601f016020809104026020016040519081016040528092919081815260200182805461121d90614c0a565b801561126a5780601f1061123f5761010080835404028352916020019161126a565b820191906000526020600020905b81548152906001019060200180831161124d57829003601f168201915b5050505050815260200160038201548152602001600482015481526020016005820154815260200160068201548152602001600782015481526020016008820160009054906101000a900473ffffffffffffffffffffffffffffffffffffffff1673ffffffffffffffffffffffffffffffffffffffff1673ffffffffffffffffffffffffffffffffffffffff168152602001600982015481525050905060006113168260600151612b68565b905060006113278360800151612b68565b905060006113388460a00151612b68565b905060006113498560c00151612b68565b9050600061135a8660e00151612b68565b905060006113a4876020015161136f8b612b68565b8960400151898989898960405160200161139098979695949392919061423e565b604051602081830303815290604052612d15565b90506000816040516020016113b99190614313565b60405160208183030381529060405290508098505050505050505050919050565b6113e26136fd565b6000600e60003373ffffffffffffffffffffffffffffffffffffffff1673ffffffffffffffffffffffffffffffffffffffff16815260200190815260200160002054905060008111156116165760086000828152602001908152602001600020604051806101400160405290816000820154815260200160018201805461146890614c0a565b80601f016020809104026020016040519081016040528092919081815260200182805461149490614c0a565b80156114e15780601f106114b6576101008083540402835291602001916114e1565b820191906000526020600020905b8154815290600101906020018083116114c457829003601f168201915b505050505081526020016002820180546114fa90614c0a565b80601f016020809104026020016040519081016040528092919081815260200182805461152690614c0a565b80156115735780601f1061154857610100808354040283529160200191611573565b820191906000526020600020905b81548152906001019060200180831161155657829003601f168201915b5050505050815260200160038201548152602001600482015481526020016005820154815260200160068201548152602001600782015481526020016008820160009054906101000a900473ffffffffffffffffffffffffffffffffffffffff1673ffffffffffffffffffffffffffffffffffffffff1673ffffffffffffffffffffffffffffffffffffffff168152602001600982015481525050915050611624565b61161e6136fd565b80925050505b90565b6116486040518060600160405280602181526020016154a9602191396123dc565b6000600e60003373ffffffffffffffffffffffffffffffffffffffff1673ffffffffffffffffffffffffffffffffffffffff1681526020019081526020016000205490506000600860008381526020019081526020016000209050611756604051806060016040528060238152602001615435602391398260010180546116ce90614c0a565b80601f01602080910402602001604051908101604052809291908181526020018280546116fa90614c0a565b80156117475780601f1061171c57610100808354040283529160200191611747565b820191906000526020600020905b81548152906001019060200180831161172a57829003601f168201915b50505050508360030154612ed3565b61178660405180606001604052806030815260200161545860309139826005015483600601548460070154612475565b61184160405180606001604052806032815260200161552f60329139600960000180546117b290614c0a565b80601f01602080910402602001604051908101604052809291908181526020018280546117de90614c0a565b801561182b5780601f106118005761010080835404028352916020019161182b565b820191906000526020600020905b81548152906001019060200180831161180e57829003601f168201915b5050505050600960020154600960040154612f72565b6000816003015411611888576040517f08c379a000000000000000000000000000000000000000000000000000000000815260040161187f9061473c565b60405180910390fd5b6000600960020154116118d0576040517f08c379a00000000000000000000000000000000000000000000000000000000081526004016118c7906147dc565b60405180910390fd5b60006118db82613014565b90508060096002015410156118fa576000600960020181905550611915565b8060096002015461190b9190614b20565b6009600201819055505b600960040154826003015410156119355760008260030181905550611953565b600960040154826003015461194a9190614b20565b82600301819055505b808260090160008282546119679190614a3f565b92505081905550611995604051806060016040528060348152602001615561603491396009600201546130d9565b6119bb6040518060600160405280602d81526020016155e3602d913983600301546130d9565b7fa8f68fa0afad68f1577a1c5c66c297b751442bbab5e98c25f07ee510a921558c600960020154836003015484600901546040516119fb93929190614925565b60405180910390a1505050565b6000600560008473ffffffffffffffffffffffffffffffffffffffff1673ffffffffffffffffffffffffffffffffffffffff16815260200190815260200160002060008373ffffffffffffffffffffffffffffffffffffffff1673ffffffffffffffffffffffffffffffffffffffff16815260200190815260200160002060009054906101000a900460ff16905092915050565b606060006001611aac6006613175565b611ab69190614b20565b67ffffffffffffffff811115611af5577f4e487b7100000000000000000000000000000000000000000000000000000000600052604160045260246000fd5b604051908082528060200260200182016040528015611b2e57816020015b611b1b6136fd565b815260200190600190039081611b135790505b5090506000600190505b611b426006613175565b811015611d8c57600860008281526020019081526020016000206040518061014001604052908160008201548152602001600182018054611b8290614c0a565b80601f0160208091040260200160405190810160405280929190818152602001828054611bae90614c0a565b8015611bfb5780601f10611bd057610100808354040283529160200191611bfb565b820191906000526020600020905b815481529060010190602001808311611bde57829003601f168201915b50505050508152602001600282018054611c1490614c0a565b80601f0160208091040260200160405190810160405280929190818152602001828054611c4090614c0a565b8015611c8d5780601f10611c6257610100808354040283529160200191611c8d565b820191906000526020600020905b815481529060010190602001808311611c7057829003601f168201915b5050505050815260200160038201548152602001600482015481526020016005820154815260200160068201548152602001600782015481526020016008820160009054906101000a900473ffffffffffffffffffffffffffffffffffffffff1673ffffffffffffffffffffffffffffffffffffffff1673ffffffffffffffffffffffffffffffffffffffff16815260200160098201548152505082600183611d369190614b20565b81518110611d6d577f4e487b7100000000000000000000000000000000000000000000000000000000600052603260045260246000fd5b6020026020010181905250600181611d859190614a3f565b9050611b38565b508091505090565b600f6020528060005260406000206000915054906101000a900473ffffffffffffffffffffffffffffffffffffffff1681565b6000611dd36006613175565b9050611ddf3382613183565b60405180610140016040528083815260200160078481548110611e2b577f4e487b7100000000000000000000000000000000000000000000000000000000600052603260045260246000fd5b90600052602060002090600a02016001018054611e4790614c0a565b80601f0160208091040260200160405190810160405280929190818152602001828054611e7390614c0a565b8015611ec05780601f10611e9557610100808354040283529160200191611ec0565b820191906000526020600020905b815481529060010190602001808311611ea357829003601f168201915b5050505050815260200160078481548110611f04577f4e487b7100000000000000000000000000000000000000000000000000000000600052603260045260246000fd5b90600052602060002090600a02016002018054611f2090614c0a565b80601f0160208091040260200160405190810160405280929190818152602001828054611f4c90614c0a565b8015611f995780601f10611f6e57610100808354040283529160200191611f99565b820191906000526020600020905b815481529060010190602001808311611f7c57829003601f168201915b5050505050815260200160078481548110611fdd577f4e487b7100000000000000000000000000000000000000000000000000000000600052603260045260246000fd5b90600052602060002090600a02016003015481526020016007848154811061202e577f4e487b7100000000000000000000000000000000000000000000000000000000600052603260045260246000fd5b90600052602060002090600a02016004015481526020016007848154811061207f577f4e487b7100000000000000000000000000000000000000000000000000000000600052603260045260246000fd5b90600052602060002090600a0201600501548152602001600784815481106120d0577f4e487b7100000000000000000000000000000000000000000000000000000000600052603260045260246000fd5b90600052602060002090600a020160060154815260200160078481548110612121577f4e487b7100000000000000000000000000000000000000000000000000000000600052603260045260246000fd5b90600052602060002090600a02016007015481526020013373ffffffffffffffffffffffffffffffffffffffff168152602001600081525060086000838152602001908152602001600020600082015181600001556020820151816001019080519060200190612192929190613766565b5060408201518160020190805190602001906121af929190613766565b50606082015181600301556080820151816004015560a0820151816005015560c0820151816006015560e082015181600701556101008201518160080160006101000a81548173ffffffffffffffffffffffffffffffffffffffff021916908373ffffffffffffffffffffffffffffffffffffffff160217905550610120820151816009015590505061225b6040518060600160405280602c81526020016155b7602c913982846131a1565b80600e60003373ffffffffffffffffffffffffffffffffffffffff1673ffffffffffffffffffffffffffffffffffffffff1681526020019081526020016000208190555033600f600083815260200190815260200160002060006101000a81548173ffffffffffffffffffffffffffffffffffffffff021916908373ffffffffffffffffffffffffffffffffffffffff1602179055506122fb6006612517565b7f4bc303fd457a97b4691b9af582ce71868a3d258638c8d4f8c60988a0f0bfb8cd33828460405161232e939291906143d9565b60405180910390a15050565b6123d68484848460405160240161235494939291906144b4565b6040516020818303038152906040527f8d142cdd000000000000000000000000000000000000000000000000000000007bffffffffffffffffffffffffffffffffffffffffffffffffffffffff19166020820180517bffffffffffffffffffffffffffffffffffffffffffffffffffffffff8381831617835250505050613240565b50505050565b612472816040516024016123f0919061444d565b6040516020818303038152906040527f41304fac000000000000000000000000000000000000000000000000000000007bffffffffffffffffffffffffffffffffffffffffffffffffffffffff19166020820180517bffffffffffffffffffffffffffffffffffffffffffffffffffffffff8381831617835250505050613240565b50565b6125118484848460405160240161248f9493929190614630565b6040516020818303038152906040527f08ee5666000000000000000000000000000000000000000000000000000000007bffffffffffffffffffffffffffffffffffffffffffffffffffffffff19166020820180517bffffffffffffffffffffffffffffffffffffffffffffffffffffffff8381831617835250505050613240565b50505050565b6001816000016000828254019250508190555050565b60007f01ffc9a7000000000000000000000000000000000000000000000000000000007bffffffffffffffffffffffffffffffffffffffffffffffffffffffff1916827bffffffffffffffffffffffffffffffffffffffffffffffffffffffff1916149050919050565b6125a081613269565b6125df576040517f08c379a00000000000000000000000000000000000000000000000000000000081526004016125d69061479c565b60405180910390fd5b50565b600033905090565b816004600083815260200190815260200160002060006101000a81548173ffffffffffffffffffffffffffffffffffffffff021916908373ffffffffffffffffffffffffffffffffffffffff160217905550808273ffffffffffffffffffffffffffffffffffffffff1661265d8361097c565b73ffffffffffffffffffffffffffffffffffffffff167f8c5be1e5ebec7d5bd14f71427d1e84f3dd0314c0f7b2291e5b200ac8c7c3b92560405160405180910390a45050565b6000806126af8361097c565b90508073ffffffffffffffffffffffffffffffffffffffff168473ffffffffffffffffffffffffffffffffffffffff1614806126f157506126f08185611a08565b5b8061272f57508373ffffffffffffffffffffffffffffffffffffffff166127178461079e565b73ffffffffffffffffffffffffffffffffffffffff16145b91505092915050565b8273ffffffffffffffffffffffffffffffffffffffff166127588261097c565b73ffffffffffffffffffffffffffffffffffffffff16146127ae576040517f08c379a00000000000000000000000000000000000000000000000000000000081526004016127a59061469c565b60405180910390fd5b600073ffffffffffffffffffffffffffffffffffffffff168273ffffffffffffffffffffffffffffffffffffffff16141561281e576040517f08c379a0000000000000000000000000000000000000000000000000000000008152600401612815906146dc565b60405180910390fd5b6128298383836132d5565b6128346000826125ea565b6001600360008573ffffffffffffffffffffffffffffffffffffffff1673ffffffffffffffffffffffffffffffffffffffff16815260200190815260200160002060008282546128849190614b20565b925050819055506001600360008473ffffffffffffffffffffffffffffffffffffffff1673ffffffffffffffffffffffffffffffffffffffff16815260200190815260200160002060008282546128db9190614a3f565b92505081905550816002600083815260200190815260200160002060006101000a81548173ffffffffffffffffffffffffffffffffffffffff021916908373ffffffffffffffffffffffffffffffffffffffff160217905550808273ffffffffffffffffffffffffffffffffffffffff168473ffffffffffffffffffffffffffffffffffffffff167fddf252ad1be2c89b69c2b068fc378daa952ba7f163c4a11628f55a4df523b3ef60405160405180910390a461299a8383836132da565b505050565b8173ffffffffffffffffffffffffffffffffffffffff168373ffffffffffffffffffffffffffffffffffffffff161415612a0e576040517f08c379a0000000000000000000000000000000000000000000000000000000008152600401612a05906146fc565b60405180910390fd5b80600560008573ffffffffffffffffffffffffffffffffffffffff1673ffffffffffffffffffffffffffffffffffffffff16815260200190815260200160002060008473ffffffffffffffffffffffffffffffffffffffff1673ffffffffffffffffffffffffffffffffffffffff16815260200190815260200160002060006101000a81548160ff0219169083151502179055508173ffffffffffffffffffffffffffffffffffffffff168373ffffffffffffffffffffffffffffffffffffffff167f17307eab39ab6107e8899845ad3d59bd9653f200f220920489ca2b5937696c3183604051612aff9190614432565b60405180910390a3505050565b612b17848484612738565b612b23848484846132df565b612b62576040517f08c379a0000000000000000000000000000000000000000000000000000000008152600401612b599061467c565b60405180910390fd5b50505050565b60606000821415612bb0576040518060400160405280600181526020017f30000000000000000000000000000000000000000000000000000000000000008152509050612d10565b600082905060005b60008214612be2578080612bcb90614c6d565b915050600a82612bdb9190614a95565b9150612bb8565b60008167ffffffffffffffff811115612c24577f4e487b7100000000000000000000000000000000000000000000000000000000600052604160045260246000fd5b6040519080825280601f01601f191660200182016040528015612c565781602001600182028036833780820191505090505b5090505b60008514612d0957600182612c6f9190614b20565b9150600a85612c7e9190614ce4565b6030612c8a9190614a3f565b60f81b818381518110612cc6577f4e487b7100000000000000000000000000000000000000000000000000000000600052603260045260246000fd5b60200101907effffffffffffffffffffffffffffffffffffffffffffffffffffffffffffff1916908160001a905350600a85612d029190614a95565b9450612c5a565b8093505050505b919050565b60606000825190506000811415612d3e5760405180602001604052806000815250915050612ece565b60006003600283612d4f9190614a3f565b612d599190614a95565b6004612d659190614ac6565b90506000602082612d769190614a3f565b67ffffffffffffffff811115612db5577f4e487b7100000000000000000000000000000000000000000000000000000000600052604160045260246000fd5b6040519080825280601f01601f191660200182016040528015612de75781602001600182028036833780820191505090505b50905060006040518060600160405280604081526020016154ca604091399050600181016020830160005b86811015612e8b5760038101905062ffffff818a015116603f8160121c168401518060081b905060ff603f83600c1c1686015116810190508060081b905060ff603f8360061c1686015116810190508060081b905060ff603f831686015116810190508060e01b90508084526004840193505050612e12565b506003860660018114612ea55760028114612eb557612ec0565b613d3d60f01b6002830352612ec0565b603d60f81b60018303525b508484525050819450505050505b919050565b612f6d838383604051602401612eeb9392919061446f565b6040516020818303038152906040527ff362ca59000000000000000000000000000000000000000000000000000000007bffffffffffffffffffffffffffffffffffffffffffffffffffffffff19166020820180517bffffffffffffffffffffffffffffffffffffffffffffffffffffffff8381831617835250505050613240565b505050565b61300e84848484604051602401612f8c949392919061450e565b6040516020818303038152906040527fd5cf17d0000000000000000000000000000000000000000000000000000000007bffffffffffffffffffffffffffffffffffffffffffffffffffffffff19166020820180517bffffffffffffffffffffffffffffffffffffffffffffffffffffffff8381831617835250505050613240565b50505050565b6000806130216003610e5e565b90506000836005015490508160001415613063578360060154905061305e60405180606001604052806025815260200161550a60259139826130d9565b6130cf565b816001141561309a578360060154905061309560405180606001604052806022815260200161559560229139826130d9565b6130ce565b81600214156130cd57836007015490506130cc60405180606001604052806021815260200161548860219139826130d9565b5b5b5b8092505050919050565b61317182826040516024016130ef9291906145c2565b6040516020818303038152906040527f9710a9d0000000000000000000000000000000000000000000000000000000007bffffffffffffffffffffffffffffffffffffffffffffffffffffffff19166020820180517bffffffffffffffffffffffffffffffffffffffffffffffffffffffff8381831617835250505050613240565b5050565b600081600001549050919050565b61319d828260405180602001604052806000815250613476565b5050565b61323b8383836040516024016131b9939291906145f2565b6040516020818303038152906040527f969cdd03000000000000000000000000000000000000000000000000000000007bffffffffffffffffffffffffffffffffffffffffffffffffffffffff19166020820180517bffffffffffffffffffffffffffffffffffffffffffffffffffffffff8381831617835250505050613240565b505050565b60008151905060006a636f6e736f6c652e6c6f679050602083016000808483855afa5050505050565b60008073ffffffffffffffffffffffffffffffffffffffff166002600084815260200190815260200160002060009054906101000a900473ffffffffffffffffffffffffffffffffffffffff1673ffffffffffffffffffffffffffffffffffffffff1614159050919050565b505050565b505050565b60006133008473ffffffffffffffffffffffffffffffffffffffff166134d1565b15613469578373ffffffffffffffffffffffffffffffffffffffff1663150b7a026133296125e2565b8786866040518563ffffffff1660e01b815260040161334b949392919061438d565b602060405180830381600087803b15801561336557600080fd5b505af192505050801561339657506040513d601f19601f820116820180604052508101906133939190613aaa565b60015b613419573d80600081146133c6576040519150601f19603f3d011682016040523d82523d6000602084013e6133cb565b606091505b50600081511415613411576040517f08c379a00000000000000000000000000000000000000000000000000000000081526004016134089061467c565b60405180910390fd5b805181602001fd5b63150b7a0260e01b7bffffffffffffffffffffffffffffffffffffffffffffffffffffffff1916817bffffffffffffffffffffffffffffffffffffffffffffffffffffffff19161491505061346e565b600190505b949350505050565b61348083836134f4565b61348d60008484846132df565b6134cc576040517f08c379a00000000000000000000000000000000000000000000000000000000081526004016134c39061467c565b60405180910390fd5b505050565b6000808273ffffffffffffffffffffffffffffffffffffffff163b119050919050565b600073ffffffffffffffffffffffffffffffffffffffff168273ffffffffffffffffffffffffffffffffffffffff161415613564576040517f08c379a000000000000000000000000000000000000000000000000000000000815260040161355b9061477c565b60405180910390fd5b61356d81613269565b156135ad576040517f08c379a00000000000000000000000000000000000000000000000000000000081526004016135a4906146bc565b60405180910390fd5b6135b9600083836132d5565b6001600360008473ffffffffffffffffffffffffffffffffffffffff1673ffffffffffffffffffffffffffffffffffffffff16815260200190815260200160002060008282546136099190614a3f565b92505081905550816002600083815260200190815260200160002060006101000a81548173ffffffffffffffffffffffffffffffffffffffff021916908373ffffffffffffffffffffffffffffffffffffffff160217905550808273ffffffffffffffffffffffffffffffffffffffff16600073ffffffffffffffffffffffffffffffffffffffff167fddf252ad1be2c89b69c2b068fc378daa952ba7f163c4a11628f55a4df523b3ef60405160405180910390a46136ca600083836132da565b5050565b6040518060a0016040528060608152602001606081526020016000815260200160008152602001600081525090565b6040518061014001604052806000815260200160608152602001606081526020016000815260200160008152602001600081526020016000815260200160008152602001600073ffffffffffffffffffffffffffffffffffffffff168152602001600081525090565b82805461377290614c0a565b90600052602060002090601f01602090048101928261379457600085556137db565b82601f106137ad57805160ff19168380011785556137db565b828001600101855582156137db579182015b828111156137da5782518255916020019190600101906137bf565b5b5090506137e891906137ec565b5090565b5b808211156138055760008160009055506001016137ed565b5090565b600061381c61381784614981565b61495c565b90508281526020810184848401111561383457600080fd5b61383f848285614bc8565b509392505050565b600081359050613856816153d8565b92915050565b60008135905061386b816153ef565b92915050565b60008135905061388081615406565b92915050565b60008151905061389581615406565b92915050565b600082601f8301126138ac57600080fd5b81356138bc848260208601613809565b91505092915050565b6000813590506138d48161541d565b92915050565b6000602082840312156138ec57600080fd5b60006138fa84828501613847565b91505092915050565b6000806040838503121561391657600080fd5b600061392485828601613847565b925050602061393585828601613847565b9150509250929050565b60008060006060848603121561395457600080fd5b600061396286828701613847565b935050602061397386828701613847565b9250506040613984868287016138c5565b9150509250925092565b600080600080608085870312156139a457600080fd5b60006139b287828801613847565b94505060206139c387828801613847565b93505060406139d4878288016138c5565b925050606085013567ffffffffffffffff8111156139f157600080fd5b6139fd8782880161389b565b91505092959194509250565b60008060408385031215613a1c57600080fd5b6000613a2a85828601613847565b9250506020613a3b8582860161385c565b9150509250929050565b60008060408385031215613a5857600080fd5b6000613a6685828601613847565b9250506020613a77858286016138c5565b9150509250929050565b600060208284031215613a9357600080fd5b6000613aa184828501613871565b91505092915050565b600060208284031215613abc57600080fd5b6000613aca84828501613886565b91505092915050565b600060208284031215613ae557600080fd5b6000613af3848285016138c5565b91505092915050565b6000613b088383614047565b905092915050565b613b1981614b54565b82525050565b613b2881614b54565b82525050565b613b3f613b3a82614b54565b614cb6565b82525050565b6000613b50826149c2565b613b5a81856149f0565b935083602082028501613b6c856149b2565b8060005b85811015613ba85784840389528151613b898582613afc565b9450613b94836149e3565b925060208a01995050600181019050613b70565b50829750879550505050505092915050565b613bc381614b66565b82525050565b6000613bd4826149cd565b613bde8185614a01565b9350613bee818560208601614bd7565b613bf781614dd1565b840191505092915050565b6000613c0d826149d8565b613c178185614a12565b9350613c27818560208601614bd7565b613c3081614dd1565b840191505092915050565b6000613c46826149d8565b613c508185614a23565b9350613c60818560208601614bd7565b613c6981614dd1565b840191505092915050565b6000613c7f826149d8565b613c898185614a34565b9350613c99818560208601614bd7565b80840191505092915050565b6000613cb2600b83614a34565b9150613cbd82614def565b600b82019050919050565b6000613cd5603283614a23565b9150613ce082614e18565b604082019050919050565b6000613cf8602583614a23565b9150613d0382614e67565b604082019050919050565b6000613d1b601c83614a23565b9150613d2682614eb6565b602082019050919050565b6000613d3e600e83614a34565b9150613d4982614edf565b600e82019050919050565b6000613d61602683614a34565b9150613d6c82614f08565b602682019050919050565b6000613d84602483614a23565b9150613d8f82614f57565b604082019050919050565b6000613da7601983614a23565b9150613db282614fa6565b602082019050919050565b6000613dca602983614a23565b9150613dd582614fcf565b604082019050919050565b6000613ded603483614a23565b9150613df88261501e565b604082019050919050565b6000613e10602a83614a34565b9150613e1b8261506d565b602a82019050919050565b6000613e33600483614a34565b9150613e3e826150bc565b600482019050919050565b6000613e56603e83614a23565b9150613e61826150e5565b604082019050919050565b6000613e79602083614a23565b9150613e8482615134565b602082019050919050565b6000613e9c600a83614a34565b9150613ea78261515d565b600a82019050919050565b6000613ebf601883614a23565b9150613eca82615186565b602082019050919050565b6000613ee2602183614a23565b9150613eed826151af565b604082019050919050565b6000613f05601d83614a34565b9150613f10826151fe565b601d82019050919050565b6000613f28603283614a23565b9150613f3382615227565b604082019050919050565b6000613f4b604a83614a34565b9150613f5682615276565b604a82019050919050565b6000613f6e603d83614a34565b9150613f79826152eb565b603d82019050919050565b6000613f91602e83614a23565b9150613f9c8261533a565b604082019050919050565b6000613fb4602883614a34565b9150613fbf82615389565b602882019050919050565b600060a0830160008301518482036000860152613fe78282613c02565b915050602083015184820360208601526140018282613c02565b91505060408301516140166040860182614209565b5060608301516140296060860182614209565b50608083015161403c6080860182614209565b508091505092915050565b6000610140830160008301516140606000860182614209565b50602083015184820360208601526140788282613c02565b915050604083015184820360408601526140928282613c02565b91505060608301516140a76060860182614209565b5060808301516140ba6080860182614209565b5060a08301516140cd60a0860182614209565b5060c08301516140e060c0860182614209565b5060e08301516140f360e0860182614209565b50610100830151614108610100860182613b10565b5061012083015161411d610120860182614209565b508091505092915050565b6000610140830160008301516141416000860182614209565b50602083015184820360208601526141598282613c02565b915050604083015184820360408601526141738282613c02565b91505060608301516141886060860182614209565b50608083015161419b6080860182614209565b5060a08301516141ae60a0860182614209565b5060c08301516141c160c0860182614209565b5060e08301516141d460e0860182614209565b506101008301516141e9610100860182613b10565b506101208301516141fe610120860182614209565b508091505092915050565b61421281614bbe565b82525050565b61422181614bbe565b82525050565b61423861423382614bbe565b614cda565b82525050565b600061424982613e8f565b9150614255828b613c74565b915061426082613ca5565b915061426c828a613c74565b915061427782613f3e565b91506142838289613c74565b915061428e82613f61565b915061429a8288613c74565b91506142a582613d31565b91506142b18287613c74565b91506142bc82613fa7565b91506142c88286613c74565b91506142d382613e03565b91506142df8285613c74565b91506142ea82613d54565b91506142f68284613c74565b915061430182613e26565b91508190509998505050505050505050565b600061431e82613ef8565b915061432a8284613c74565b915081905092915050565b60006143418286614227565b6020820191506143518285614227565b6020820191506143618284613b2e565b601482019150819050949350505050565b60006020820190506143876000830184613b1f565b92915050565b60006080820190506143a26000830187613b1f565b6143af6020830186613b1f565b6143bc6040830185614218565b81810360608301526143ce8184613bc9565b905095945050505050565b60006060820190506143ee6000830186613b1f565b6143fb6020830185614218565b6144086040830184614218565b949350505050565b6000602082019050818103600083015261442a8184613b45565b905092915050565b60006020820190506144476000830184613bba565b92915050565b600060208201905081810360008301526144678184613c3b565b905092915050565b600060608201905081810360008301526144898186613c3b565b9050818103602083015261449d8185613c3b565b90506144ac6040830184614218565b949350505050565b600060808201905081810360008301526144ce8187613c3b565b905081810360208301526144e28186613c3b565b90506144f16040830185614218565b81810360608301526145038184613c3b565b905095945050505050565b600060808201905081810360008301526145288187613c3b565b9050818103602083015261453c8186613c3b565b905061454b6040830185614218565b6145586060830184614218565b95945050505050565b600060a082019050818103600083015261457b8188613c3b565b9050818103602083015261458f8187613c3b565b905061459e6040830186614218565b6145ab6060830185614218565b6145b86080830184614218565b9695505050505050565b600060408201905081810360008301526145dc8185613c3b565b90506145eb6020830184614218565b9392505050565b6000606082019050818103600083015261460c8186613c3b565b905061461b6020830185614218565b6146286040830184614218565b949350505050565b6000608082019050818103600083015261464a8187613c3b565b90506146596020830186614218565b6146666040830185614218565b6146736060830184614218565b95945050505050565b6000602082019050818103600083015261469581613cc8565b9050919050565b600060208201905081810360008301526146b581613ceb565b9050919050565b600060208201905081810360008301526146d581613d0e565b9050919050565b600060208201905081810360008301526146f581613d77565b9050919050565b6000602082019050818103600083015261471581613d9a565b9050919050565b6000602082019050818103600083015261473581613dbd565b9050919050565b6000602082019050818103600083015261475581613de0565b9050919050565b6000602082019050818103600083015261477581613e49565b9050919050565b6000602082019050818103600083015261479581613e6c565b9050919050565b600060208201905081810360008301526147b581613eb2565b9050919050565b600060208201905081810360008301526147d581613ed5565b9050919050565b600060208201905081810360008301526147f581613f1b565b9050919050565b6000602082019050818103600083015261481581613f84565b9050919050565b600060208201905081810360008301526148368184613fca565b905092915050565b600060208201905081810360008301526148588184614128565b905092915050565b60006020820190506148756000830184614218565b92915050565b600061014082019050614891600083018d614218565b81810360208301526148a3818c613c3b565b905081810360408301526148b7818b613c3b565b90506148c6606083018a614218565b6148d36080830189614218565b6148e060a0830188614218565b6148ed60c0830187614218565b6148fa60e0830186614218565b614908610100830185613b1f565b614916610120830184614218565b9b9a5050505050505050505050565b600060608201905061493a6000830186614218565b6149476020830185614218565b6149546040830184614218565b949350505050565b6000614966614977565b90506149728282614c3c565b919050565b6000604051905090565b600067ffffffffffffffff82111561499c5761499b614da2565b5b6149a582614dd1565b9050602081019050919050565b6000819050602082019050919050565b600081519050919050565b600081519050919050565b600081519050919050565b6000602082019050919050565b600082825260208201905092915050565b600082825260208201905092915050565b600082825260208201905092915050565b600082825260208201905092915050565b600081905092915050565b6000614a4a82614bbe565b9150614a5583614bbe565b9250827fffffffffffffffffffffffffffffffffffffffffffffffffffffffffffffffff03821115614a8a57614a89614d15565b5b828201905092915050565b6000614aa082614bbe565b9150614aab83614bbe565b925082614abb57614aba614d44565b5b828204905092915050565b6000614ad182614bbe565b9150614adc83614bbe565b9250817fffffffffffffffffffffffffffffffffffffffffffffffffffffffffffffffff0483118215151615614b1557614b14614d15565b5b828202905092915050565b6000614b2b82614bbe565b9150614b3683614bbe565b925082821015614b4957614b48614d15565b5b828203905092915050565b6000614b5f82614b9e565b9050919050565b60008115159050919050565b60007fffffffff0000000000000000000000000000000000000000000000000000000082169050919050565b600073ffffffffffffffffffffffffffffffffffffffff82169050919050565b6000819050919050565b82818337600083830152505050565b60005b83811015614bf5578082015181840152602081019050614bda565b83811115614c04576000848401525b50505050565b60006002820490506001821680614c2257607f821691505b60208210811415614c3657614c35614d73565b5b50919050565b614c4582614dd1565b810181811067ffffffffffffffff82111715614c6457614c63614da2565b5b80604052505050565b6000614c7882614bbe565b91507fffffffffffffffffffffffffffffffffffffffffffffffffffffffffffffffff821415614cab57614caa614d15565b5b600182019050919050565b6000614cc182614cc8565b9050919050565b6000614cd382614de2565b9050919050565b6000819050919050565b6000614cef82614bbe565b9150614cfa83614bbe565b925082614d0a57614d09614d44565b5b828206905092915050565b7f4e487b7100000000000000000000000000000000000000000000000000000000600052601160045260246000fd5b7f4e487b7100000000000000000000000000000000000000000000000000000000600052601260045260246000fd5b7f4e487b7100000000000000000000000000000000000000000000000000000000600052602260045260246000fd5b7f4e487b7100000000000000000000000000000000000000000000000000000000600052604160045260246000fd5b6000601f19601f8301169050919050565b60008160601b9050919050565b7f202d2d204e465420233a20000000000000000000000000000000000000000000600082015250565b7f4552433732313a207472616e7366657220746f206e6f6e20455243373231526560008201527f63656976657220696d706c656d656e7465720000000000000000000000000000602082015250565b7f4552433732313a207472616e736665722066726f6d20696e636f72726563742060008201527f6f776e6572000000000000000000000000000000000000000000000000000000602082015250565b7f4552433732313a20746f6b656e20616c7265616479206d696e74656400000000600082015250565b7f2c20226d61785f76616c7565223a000000000000000000000000000000000000600082015250565b7f7d2c207b202274726169745f74797065223a202241657269616c222c2022766160008201527f6c7565223a200000000000000000000000000000000000000000000000000000602082015250565b7f4552433732313a207472616e7366657220746f20746865207a65726f2061646460008201527f7265737300000000000000000000000000000000000000000000000000000000602082015250565b7f4552433732313a20617070726f766520746f2063616c6c657200000000000000600082015250565b7f4552433732313a2061646472657373207a65726f206973206e6f74206120766160008201527f6c6964206f776e65720000000000000000000000000000000000000000000000602082015250565b7f4572726f723a20706572736f6e6167656d20707265636973612074657220485060008201527f207061726120617461636172206f20626f73732e000000000000000000000000602082015250565b7f7d2c207b202274726169745f74797065223a202254756265526964696e67222c60008201527f202276616c7565223a2000000000000000000000000000000000000000000000602082015250565b7f7d205d7d00000000000000000000000000000000000000000000000000000000600082015250565b7f4552433732313a20617070726f76652063616c6c6572206973206e6f7420746f60008201527f6b656e206f776e6572206e6f7220617070726f76656420666f7220616c6c0000602082015250565b7f4552433732313a206d696e7420746f20746865207a65726f2061646472657373600082015250565b7f7b226e616d65223a202200000000000000000000000000000000000000000000600082015250565b7f4552433732313a20696e76616c696420746f6b656e2049440000000000000000600082015250565b7f4552433732313a20617070726f76616c20746f2063757272656e74206f776e6560008201527f7200000000000000000000000000000000000000000000000000000000000000602082015250565b7f646174613a6170706c69636174696f6e2f6a736f6e3b6261736536342c000000600082015250565b7f4572726f723a205069636f207072656369736120746572204f6e64617320706160008201527f7261207065726d697469722073757266652e0000000000000000000000000000602082015250565b7f222c20226465736372697074696f6e223a202245737461204e4654206461206160008201527f636573736f20616f206d6575206a6f676f204e465421222c2022696d6167652260208201527f3a2022697066733a2f2f00000000000000000000000000000000000000000000604082015250565b7f222c202261747472696275746573223a205b207b202274726169745f7479706560008201527f223a20224865616c746820506f696e7473222c202276616c7565223a20000000602082015250565b7f4552433732313a2063616c6c6572206973206e6f7420746f6b656e206f776e6560008201527f72206e6f7220617070726f766564000000000000000000000000000000000000602082015250565b7f7d2c207b202274726169745f74797065223a20224d616e6575766572222c202260008201527f76616c7565223a20000000000000000000000000000000000000000000000000602082015250565b6153e181614b54565b81146153ec57600080fd5b50565b6153f881614b66565b811461540357600080fd5b50565b61540f81614b72565b811461541a57600080fd5b50565b61542681614bbe565b811461543157600080fd5b5056fe0a41746c6574612025732066657a206f2064726f7020636f6d2025732064652048502e486162696c696461646573202d206d616e6f627261733a2025732c207475626f733a2025732c20616572656f3a20257353757266697374612066657a20756d20416572656f20636f6d206e6f74612025733d3d3d3d3d3d3d3d3d3d205065676f752061206f6e6461203d3d3d3d3d3d3d3d3d4142434445464748494a4b4c4d4e4f505152535455565758595a6162636465666768696a6b6c6d6e6f707172737475767778797a303132333435363738392b2f5375726669737461207265616c697a6f75204d616e6f62726120636f6d206e6f74612025730a5069636f2025732074656d202573206465204f6e64617320652025732064652063616e736569726120706f72206f6e64610a4f207069636f2061696e64612074656d202573206f6e64617320616e746573206465207465726d696e6172206f207377656c6c5375726669737461207065676f7520756d205475626f20636f6d206e6f74612025734d696e746f75204e465420632f20746f6b656e4964202573206520636861726163746572496e6465782025734f20737572666973746120676173746f7520656e65726769612065206669636f7520636f6d2048503a2025730aa26469706673582212202fcbb3a5c8cc110ebfa0ebfd247f6f065d984e5afd0458e213cd349e8995226264736f6c634300080400332a2a20486162696c6964616465733a206d616e6f627261733a2025732c207475626f733a2025732c20616572656f3a202573200a2d2d2d2d2d2d2d2d2d2d2d2d2d2d2d2d2d2d2d2d2d2d2d2d2d2d2d2d2d2d2d2d2d2d2d2d2d2d0a5069636f20646520537572666520696e696369616c697a61646f20636f6d207375636573736f20257320636f6d202573206465206f6e6461732c20696d672025732a2a2041746c65746120696e696369616c697a61646f3a20257320636f6d2025732064652048502c20696d67202573",
  "linkReferences": {},
  "deployedLinkReferences": {}
}